:020000040000FA
:060000000A128A110C280F
:10000800FE00030EF3000A08F4000A128A11EA2817
:100018000A128A110F28F801F901FA01FB0183136A
:100028002030840031300A128A1139210A128A11CB
:1000380083010A128A119728013083160317880052
:100048008901013083160313850003308600870178
:1000580088018901811303309500033096008312CB
:1000680003131F083F3940389F00C3309F051F14F2
:100078000B110830810083160313811281110114BA
:10008800811001118B178B150B170C178B163F302E
:10009800F500750883120313A0000630F5007508F3
:1000A800A1005B30F5007508A2004F30F500750817
:1000B800A3006630F5007508A4006D30F5007508DA
:1000C800A5007D30F5007508A6000730F500750815
:1000D800A7007F30F5007508A8006730F50075089F
:1000E800A9007730F5007508AA007C30F50075087E
:1000F800AB003930F5007508AC005E30F5007508C6
:10010800AD007930F5007508AE007130F50075085E
:10011800AF00B00185018601803087008801023078
:100128008900F80108000A128A1120200A128A118F
:10013800831203139F142130F600F60BA1287B08C5
:100148000F39F6007608FA007B08F6000430031031
:10015800F60CFF3E031DAB287608F7007708F90078
:10016800CB2883120313091489107908203E8400D0
:10017800831300088800DB288312031309108914ED
:100188007A08203E8400831300088800DB2878085A
:10019800F600F7017708003A0319D328DB28760818
:1001A800003A0319B528013A0319C028DB287B084F
:1001B8008312031307020318E228E328E528091528
:1001C8009C2809119C280A128A110C280B1CED285E
:1001D800EE28FF28831203130618F328F428F828BA
:1001E8000130F200720887078618FB28FC28FE28D1
:1001F800013087020B10831603130C1F04290529ED
:1002080010290A128A1141210A128A11F200720871
:10021800FB00831203130C130B1D13291429242923
:100228000130F2007208F80702307806031D1D2914
:100238001E291F29F8010A128A112B210A128A1174
:1002480074088A00730E8300FE0E7E0E09000B11DF
:100258000830831203138100831603138112F830C8
:100268008105011081100111080064008001840AD1
:1002780004060319003404063A29831203131E08DE
:0A028800F0007008F1007108080092
:04400E00F43FFF3F3D
:00000001FF
