:020000040000FA
:060000000A128A110C280F
:10000800FE00030EF1000A08F2000A128A11042900
:100018000A128A110F28F701F801F901FA0183126F
:100028000313A701A80183010A128A111B280A12C7
:100038008A1165210A128A11831203138F018E0116
:100048000614023083120313A500A50B292800000B
:10005800831203130610861C322833282F28101405
:10006800861837283828342810100F08A8000E08DA
:10007800A7003A30F3000030F4002808F6002708FB
:10008800F5000A128A119B200A128A117408F800D6
:100098007308F7007808803AFF0080307F02031D5C
:1000A800572806307702031C5A285B2862287908EB
:1000B800023983120313A5002508F9007808803A4D
:1000C800FF0080307F02031D6B280530770203187C
:1000D8006E286F2876287908013883120313A50043
:1000E8002508F9008312031306197B287C28822827
:1000F80079080139A5002508F9000510061D85288D
:1001080086288C2879080238A5002508F9000514E6
:10011800413083120313A600ED30A500A50B9228E9
:10012800A60B9228972820280A128A110C288312D5
:100138000313A201F41FA128A228A928F309F4098E
:10014800F30A0319F40AA201A20AF61FAC28AD2883
:10015800B628F509F609F50A0319F60A0130A000D0
:100168002008A206A301A401730874040319BD287A
:10017800BE28F528A101A10ACC2801300310F30DEF
:10018800F40DFF3E031DC2280130A0002008A1077E
:10019800F41FCF28D028C12801300310A30DA40DC7
:1001A800FF3E031DD12874087602031DDD2873085D
:1001B8007502031CE028E128E8287308F502740892
:1001C800031CF603F602231401300310F40CF30C9D
:1001D800FF3E031DE9280130A102031DF428F5287C
:1001E800D02822080319F928FA28FF28A309A40906
:1001F800A30A0319A40A2408F4002308F30008003A
:10020800831203138C1D09290A295E291412141B51
:100218000E290F291329941F122913291A291308A3
:10022800F0007008FA0014139413141683160313BD
:10023800941A1F2920293B291419232924293B29E9
:10024800831203131308F0007008FA008C111416B7
:1002580083160313141C312932292C298312031302
:10026800130888005330F000F00B38295B29941AE2
:100278003E293F295B29141D422943295B29831202
:1002880003131308F0007008FA0083160313141000
:10029800790883120313930014165330F000F00BFF
:1002A80053298316031314185A295B2955298312D5
:1002B80003138C1172088A00710E8300FE0E7E0EE5
:1002C8000900831603178801890183160313850122
:1002D800063086008701880189018B1700300A12D1
:1002E8008A1181210A128A1183120313850186015A
:1002F800870188018901F9010800F3007308831652
:10030800031393003630831203139400803083164E
:100318000313940001309100871507168B170B17EC
:0E032800831203138C11831603138C15080027
:04400E00D420FF3F7C
:00000001FF
