:020000040000FA
:060000000A128A110C280F
:10000800FE00030EF1000A08F2000A128A110629FE
:100018000A128A110F28F701F801F901FA0183126F
:100028000313A701A80183010A128A111B280A12C7
:100038008A1167210A128A11831203138F018E0114
:100048000614023083120313A500A50B292800000B
:10005800831203130610861C322833282F28101405
:10006800861837283828342810100F08A8000E08DA
:10007800A7003A30F3000030F4002808F6002708FB
:10008800F5000A128A119D200A128A117408F800D4
:100098007308F7007808803AFF0080307F02031D5C
:1000A800572814307702031C5A285B2862287908DD
:1000B800023983120313A5002508F9007808803A4D
:1000C800FF0080307F02031D6B281430770203186D
:1000D8006E286F2876287908013883120313A50043
:1000E8002508F9008312031306197B287C28822827
:1000F80079080139A5002508F9000510061D85288D
:1001080086288C2879080238A5002508F9000514E6
:1001180079088800413083120313A600ED30A5004A
:10012800A50B9428A60B9428992820280A128A112E
:100138000C2883120313A201F41FA328A428AB28B8
:10014800F309F409F30A0319F40AA201A20AF61F33
:10015800AE28AF28B828F509F609F50A0319F60AF2
:100168000130A0002008A206A301A40173087404AA
:100178000319BF28C028F728A101A10ACE280130F9
:100188000310F30DF40DFF3E031DC4280130A00039
:100198002008A107F41FD128D228C3280130031052
:1001A800A30DA40DFF3E031DD32874087602031D7A
:1001B800DF2873087502031CE228E328EA2873087D
:1001C800F5027408031CF603F60223140130031029
:1001D800F40CF30CFF3E031DEB280130A102031DB4
:1001E800F628F728D22822080319FB28FC28012919
:1001F800A309A409A30A0319A40A2408F4002308DC
:10020800F3000800831203138C1D0B290C296029A5
:100218001412141B102911291529941F14291529A2
:100228001C291308F0007008FA001413941314160C
:1002380083160313941A212922293D2914192529E3
:1002480026293D29831203131308F0007008FA00C9
:100258008C11141683160313141C332934292E29E0
:1002680083120313130888005330F000F00B3A2967
:100278005D29941A402941295D29141D44294529DD
:100288005D29831203131308F0007008FA0083161F
:1002980003131410790883120313930014165330B0
:1002A800F000F00B55298316031314185C295D29F7
:1002B8005729831203138C1172088A00710E830068
:1002C800FE0E7E0E09008316031788018901831626
:1002D80003138501063086008701880189018B1781
:1002E80000300A128A1183210A128A118312031319
:1002F80085018601870188018901F9010800F30059
:100308007308831603139300363083120313940083
:100318008030831603139400013091008715071667
:100328008B170B17831203138C11831603138C1569
:020338000800BB
:04400E00D420FF3F7C
:00000001FF
