:020000040000FA
:060000000A128A110C280F
:10000800FE00030EFC000A08FD000A128A1162288D
:100018000A128A110F2883120313A601A701A80147
:10002800A90183010A128A11112983120313880175
:100038001A3083120313A400F730A300A30B22285D
:10004800A40B2228272803300A128A112A210A120F
:100058008A11073083120313A4007C30A300A30B7A
:100068003328A40B3328000003300A128A112A21EE
:100078000A128A11343083120313A300A30B4228F7
:10008800000003300A128A112A210A128A113C3010
:10009800831203138800103088000130880007306D
:1000A80088000F308800823083120313A400DD30EB
:1000B800A300A30B5D28A40B5D280800831203137B
:1000C8000C1F6728682898281F0CFB007B0C0F3929
:1000D800003A031D7028712881280A128A11CA2043
:1000E8000A128A11710883120313A9007008A80064
:1000F8001F08C33904389F0097281F0CFB007B0C8E
:100108000F39013A031D89288A2897280A128A116B
:10011800CA200A128A11710883120313A7007008F3
:10012800A600C3309F050C137D088A007C0E83004F
:10013800FE0E7E0E0900033083160317880089011E
:10014800033083160313850086018701880189011E
:100158008B170B170C17831203131F083F394038EE
:100168009F00C3309F051F140C130A128A1119200F
:100178000A128A11831203138501860187018801F7
:100188008901A801A901A601A70108008316031384
:100198001E08F20006300310F20CFF3E031DCF28A4
:1001A8007208F300F4017308F5007408F60083126E
:1001B80003131E08F200F3010310F20DF30D0310F0
:1001C800F20DF30D7208F7007308F800750877044C
:1001D800F90076087804FA007A08F1007908F00046
:1001E800080083120313A200220888000914891446
:1001F800203083120313A000A00B002900008312F3
:10020800031389100D3083120313A100FB30A000E3
:10021800A00B0C29A10B0C2908000A128A119F2097
:100228000A128A112F300A128A11F5200A128A112D
:10023800831203139F14203083120313A500A50B08
:10024800232900001C290A128A110C28831203137F
:10025800A2000910220888008914063083120313AB
:10026800A1002F30A000A00B3729A10B37293C296A
:08027800831203138910080032
:04400E00F43FFF3F3D
:00000001FF
