:020000040000FA
:060000000A128A110C280F
:10000800FE00030EFC000A08FD000A128A15052DE1
:100018000A128A110F2883120313ED01EE01EF0172
:100028008313A0308400B7300A128A11F6270A1207
:100038008A1183010A128A11822B83120313310851
:100048008039B6003608BB003108B6003607B7005D
:100058003708C100B01F312832283328411441081D
:100068000319372838284728410A031D3C283D280A
:1000780045280030B1000030B0000030AF0000303B
:10008800AE00B0174F280030B1000030B00000308B
:10009800AF000030AE0035088039B6003608BB0620
:1000A8003508B6003607B7003708C000B41F5D280A
:1000B8005E285F28401440080319632864287328C1
:1000C800400A031D6828692871280030B5000030EF
:1000D800B4000030B3000030B200B4177B28003001
:1000E800B5000030B4000030B3000030B200400862
:1000F80003197F28802885284108031D842885281E
:100108008E280030B1000030B0000030AF00003061
:10011800AE00812B2E08B6003608A00034080A125B
:100128008A157A240A128A11831203132108C70038
:100138002008C6004608B600B701B801B901390859
:10014800BF003808BE003708BD003608BC004708A5
:10015800B600B701B801B9013908C5003808C400AC
:100168003708C3003608C2002F08B6003608A000BA
:1001780033080A128A157A240A128A118312031381
:100188002108C7002008C6004608B600B701B80114
:10019800B9013608BC07370803110318013E0319D3
:1001A800D628BD07380803110318013E0319DD28B6
:1001B800BE07390803110318013E0319E428BF07D5
:1001C8004708B600B701B801B9013608C2073708B1
:1001D80003110318013E0319F228C3073808031155
:1001E8000318013E0319F928C40739080311031835
:1001F800013E03190029C5073008B6003608A000DB
:1002080032080A128A157A240A128A1183120313F1
:100218002108C7002008C6004608B600B701B80183
:10022800B9013608BC07370803110318013E031942
:100238001E29BD07380803110318013E0319252993
:10024800BE07390803110318013E03192C29BF07FB
:100258004708B600B701B801B9013608C207370820
:1002680003110318013E03193A29C307380803117B
:100278000318013E03194129C4073908031103185B
:10028800013E03194829C5070830B6000310BC0D04
:10029800BD0DBE0DBF0DB60B4A292F08B600360896
:1002A800A00032080A128A157A240A128A118312C7
:1002B80003132108C7002008C6004608B6004708EF
:1002C800B700B801B9013608BC073708031103188D
:1002D800013E03197029BD07380803110318013EB0
:1002E80003197729BE07390803110318013E0319BA
:1002F8007E29BF072E08B6003608A00033080A1268
:100308008A157A240A128A11831203132108C70056
:100318002008C6004608B6004708B700B801B9016A
:100328003608BC07370803110318013E03199D2935
:10033800BD07380803110318013E0319A429BE0795
:10034800390803110318013E0319AB29BF07083008
:10035800B6000310BC0DBD0DBE0DBF0DB60BAD290B
:100368002E08B6003608A00032080A128A157A2428
:100378000A128A11831203132108C7002008C60035
:100388004608B6004708B700B801B9013608BC07E7
:10039800370803110318013E0319D329BD0738088C
:1003A80003110318013E0319DA29BE07390803119E
:1003B8000318013E0319E129BF072F08B6003608C4
:1003C800A00034080A128A157A240A128A118312A4
:1003D80003132108C7002008C6004608B6004708CE
:1003E800B700B801B9013608C20737080311031866
:1003F800013E0319002AC307380803110318013EF8
:100408000319072AC407390803110318013E031901
:100418000E2AC5073008B6003608A00033080A12AD
:100428008A157A240A128A11831203132108C70035
:100438002008C6004608B6004708B700B801B90149
:100448003608C207370803110318013E03192D2A7D
:10045800C307380803110318013E0319342AC407D7
:10046800390803110318013E03193B2AC507300850
:10047800B6003608A00034080A128A157A240A122F
:100488008A11831203132108C7002008C6004608F2
:10049800B6004708B700B801B90108300310B60D17
:1004A800B70DB80DB90DFF3E031D522A3608C20715
:1004B800370803110318013E0319632AC3073808D4
:1004C80003110318013E03196A2AC40739080311E6
:1004D8000318013E0319712AC5073C08B6003D08F8
:1004E800B7003E08B8003F08B90018300310B90C2F
:1004F800B80CB70CB60CFF3E031D7A2A3608C207A3
:10050800370803110318013E03198B2AC30738085B
:1005180003110318013E0319922AC407390803116D
:100528000318013E0319992AC5070830B6000310BD
:10053800BC0DBD0DBE0DBF0DB60B9B2A4108400773
:10054800B600B701B70D3608823EC6003708031853
:10055800013EFF3EC700CD2A0130B6000310C20D90
:10056800C30DC40DC50DB60BB22ABF1FBC2ABD2AC8
:10057800BE2A42140130B6000310BC0DBD0DBE0DDD
:10058800BF0DB60BC02AFF30C6070318C70AFF30D5
:10059800C707C41FD02AD12AB02AC001BF1FD52A35
:1005A800D62AF22AFF303C05B600FF303D05B700D9
:1005B800FF303E05B8007F303F05B90039083804E0
:1005C800370436040319E92AEA2AED2AC001C00AC9
:1005D800F22A421CF02AF12AF22AEA2A40080319D0
:1005E800F62AF72A282B0130C207003003180130F9
:1005F800C307003003180130C40700300318013066
:10060800C507451C082B092B282B4208B6004308B0
:10061800B7004408B8004508B9000130BA00390DE0
:10062800B90CB80CB70CB60CBA0B132B3908C500AB
:100638003808C4003708C3003608C2000130C607AE
:100648000318C70A0030C7074708803AFF00803000
:100658007F02031D312BFF304602031C342B352B40
:10066800402B7F3083120313C5008030C400003054
:10067800C3000030C200752B831203134708803A69
:10068800FF0080307F02031D4B2B01304602031808
:100698004E2B4F2B5B2B003083120313C500003009
:1006A800C4000030C3000030C200BB01752B8312A8
:1006B80003134608B6003608C100FF30C205FF30F4
:1006C800C3057F30C4050030C505411C6C2B6D2B5C
:1006D8006E2BC4174108B6000310360CB700370854
:1006E800C5003B08B6003608C5044508B1004408F3
:1006F800B0004308AF004208AE0008000A128A158D
:10070800CE240A128A1101300A128A1551240A12BB
:100718008A11831203139F14203083160313B70022
:10072800B70B942B0000831603132C0883120313B2
:10073800A000831603132D0883120313A100A2013E
:10074800A30100300A128A11F4260A128A118312B0
:1007580003132308B5002208B4002108B3002008B9
:10076800B2004530B1009C30B0004030AF000030DE
:10077800AE000A128A1121200A128A118312031369
:100788003108CF003008CE002F08CD002E08CC004D
:100798004430CB008030CA000030C9000030C800A7
:1007A8000A128A1523260A128A11831203134B0888
:1007B800E5004A08E4004908E3004808E2000A1294
:1007C8008A15A7250A128A11831203136308831650
:1007D8000313A70083120313620883160313A600EA
:1007E8002A0883120313A000831603132B0883120D
:1007F8000313A100A201A30100300A128A11F426F2
:100808000A128A11831203132308B5002208B400C0
:100818002108B3002008B2004530B1009C30B00078
:100828004030AF000030AE000A128A1121200A12AF
:100838008A11831203133108CF003008CE002F0825
:10084800CD002E08CC004430CB008030CA000030E8
:10085800C9000030C8000A128A1523260A128A1114
:10086800831203134B08E5004A08E4004908E30033
:100878004808E2000A128A15A7250A128A1183126B
:100888000313630883160313A30083120313620878
:1008980083160313A200831203138C1E542C552CA9
:1008A8006C2C2B301A06031D5A2C5B2C612C013042
:1008B80083160313B7003708A9072D3083121A06C9
:1008C800031D672C682C6C2C013083160313A902B6
:1008D8008316031325082706031D742C24082606EF
:1008E800031D772C782C822C21082306031D7E2CCF
:1008F800200822060319812C822CAA2D2708A5007E
:100908002608A4002308A1002208A00027088312B3
:100918000313AF0083160313260883120313AE00D4
:100928006F3083160313B700370883120313B00020
:100938006E3083160313B800380883120313B1000E
:100948006D3083160313B900390883120313B200FC
:10095800B63083160313BA003A0883120313B300A0
:100968000A128A1127260A128A11831603132308EA
:1009780083120313AF008316031322088312031391
:10098800AE00B53083160313B7003708831203137C
:10099800B000B43083160313B80038088312031369
:1009A800B100B33083160313B90039088312031357
:1009B800B200B23083160313BA003A088312031345
:1009C800B3000A128A1127260A128A11C0300A12A5
:1009D8008A15A6230A128A11831203136F08303E60
:1009E8000A128A15E9230A128A1139300A128A155D
:1009F80051240A128A11831203136E08303E0A1218
:100A08008A15E9230A128A11831203136D08303EEE
:100A18000A128A15E9230A128A1136300A128A152F
:100A280051240A128A1113300A128A1505240A124F
:100A38008A11831203136F08303E0A128A159A230B
:100A48000A128A1139300A128A1505240A128A11E3
:100A5800831203136E08303E0A128A159A230A126B
:100A68008A11831203136D08303E0A128A159A23DD
:100A78000A128A11831603133608303E0A128A15A1
:100A88009A230A128A1132300A128A1505240A1288
:100A98008A11831603133508303E0A128A15E92392
:100AA8000A128A1139300A128A1551240A128A1137
:100AB800831603133408303E0A128A15E9230A12F2
:100AC8008A11831603133308303E0A128A15E92364
:100AD8000A128A1136300A128A1551240A128A110A
:100AE80020300A128A1505240A128A118316031364
:100AF8003508303E0A128A159A230A128A113930AB
:100B08000A128A1505240A128A1183160313340857
:100B1800303E0A128A159A230A128A118316031381
:100B28003308303E0A128A159A230A128A1183164C
:100B380003133208303E0A128A159A230A128A11C0
:100B48002D300A128A1505240A128A1183160313F6
:100B5800280829060319B12DB22D8D2BCC300A1285
:100B68008A15A6230A128A11831603132908B700C7
:100B78003708A8002908B700B801370883120313FB
:100B8800AE0083160313380883120313AF00B13085
:100B980083160313B900390883120313B000B03069
:100BA80083160313BA003A0883120313B100AF3057
:100BB80083160313BB003B0883120313B200AE3045
:100BC80083160313BC003C0883120313B3000A12F4
:100BD8008A1127260A128A11831603133008031D67
:100BE800F62DF72DFE2D11300A128A1551240A12FE
:100BF8008A11052E3008303E0A128A15E9230A1296
:100C08008A11831603132F08031D0B2E0C2E132E87
:100C180011300A128A1551240A128A111A2E2F0825
:100C2800303E0A128A15E9230A128A118316031321
:100C38002E08303E0A128A15E9230A128A118D2BD2
:100C48000A128A110C28E83083120313A600033015
:100C5800A7002F08A9002E08A8000A128A11B02799
:100C68000A128A11831203132608B400300884007C
:100C78003408831380006430A6000030A7003008D1
:100C880084000008B400B5013408A0003508A100AC
:100C98001830A200FC30A3000A128A152A240A126E
:100CA8008A11831203132E082007A8002F0803189F
:100CB8002F0A2107A9000A128A11B0270A128A11DD
:100CC800831203132608B6003108840036088313FC
:100CD80080000A30A6000030A70030088400000811
:100CE800B400B5013408A0003508A1001830A200EE
:100CF800FC30A3000A128A152A240A128A118312C8
:100D080003132008B6002108B700310884008313B4
:100D18000008B800B9013808A0003908A1009C30C3
:100D2800A200FF30A3000A128A152A240A128A1187
:100D38008312031320083607BA0021080318210A72
:100D48003707BB002E083A07A8002F0803182F0AF8
:100D58003B07A9000A128A11B0270A128A118312C6
:100D680003132608BC00320884003C088313800063
:100D78001830B4003408A0003008840000080A12B3
:100D88008A15D2230A128A1183120313B5009C30E4
:100D9800B6003608A00031088400831300080A1240
:100DA8008A15D2230A128A1183120313B700F63068
:100DB800B8003808A00032088400831300080A121B
:100DC8008A15D2230A128A118312031337073507AB
:100DD8002E07B900330884003908831380000800FF
:100DE80083120313A80028080319FB2EFC2E102FCA
:100DF800A31FFF2E002F102F2009AA002109AB00E6
:100E08002209AC002309AD00AA0A0319AB0A031989
:100E1800AC0A0319AD0A182F2308AD002208AC004C
:100E28002108AB002008AA0023082204210420047A
:100E3800031D1F2F202F292F0030A3000030A200F0
:100E48000030A1000030A000AF2F9630A400240885
:100E5800A9003B2F0130A4002408A9070130031082
:100E6800AD0CAC0CAB0CAA0CFF3E031D332FFE30AF
:100E78002D05031D402F412F2E2F5D2F0130A4007B
:100E88002408A9070130AA07003003180130AB076E
:100E9800003003180130AC07003003180130AD07EB
:100EA80001300310AD0CAC0CAB0CAA0CFF3E031DBB
:100EB800552FFF302D05031D622F632F422F6F2FF3
:100EC8000130A9020130A4000310AA0DAB0DAC0D2E
:100ED800AD0DA40B682FAC1B722F732F792F023026
:100EE80029020318782F792F642F29187C2F7D2F3A
:100EF800852FFF30AA05FF30AB057F30AC05FF30EA
:100F0800AD050310A90C2908A400A501A601A70195
:100F180018300310A40DA50DA60DA70DFF3E031D47
:100F28008D2F2408AA042508AB042608AC0427083A
:100F3800AD0428080319A12FA22FA72FA31FA52F9F
:100F4800A62FA72FAD172D08A3002C08A2002B0849
:100F5800A1002A08A000080083120313AB01AC010A
:100F6800260827040319B92FBA2FF12FAD01AD0AAE
:100F7800C82F01300310A60DA70DFF3E031DBE2F7D
:100F88000130AA002A08AD07A71FCB2FCC2FBD2FF1
:100F980001300310AB0DAC0DFF3E031DCD2F27080C
:100FA8002902031DD92F26082802031CDC2FDD2F58
:100FB800E42F2608A8022708031CA903A9022B145A
:100FC80001300310A70CA60CFF3E031DE52F0130CE
:100FD800AD02031DF02FF12FCC2F2C08A7002B08F2
:100FE800A600080064008001840A0406031900347E
:040FF8000406F72FC5
:1010000008308A000408840A82070034203420341F
:1010100056343134203420342034203456343234A1
:1010200020342034203420345634333420340034F7
:1010300056346F346C34743461346734653420341E
:10104000313420343D342034003456346F346C3421
:1010500074346134673465342034323420343D34A0
:1010600020340034203456340D340D340034203410
:1010700056340D3400345634203400342E340034C9
:1017340083120313A0002008990083160313981C36
:10174400A42BA52B9F2B080083120313A2000910BE
:10175400220888008914063083120313A1002F3055
:10176400A000A00BB32BA10BB32BB82B8312031334
:101774008910080083160313981618128312031392
:1017840098178316031318158316031787118316E6
:1017940003139A01193099008312031318160800D1
:1017A40083120313A300A201231CD92BDA2BDE2BF3
:1017B4002008A1002108A2070310A00D0310A30C08
:1017C4002308031DE62BE72BD62B220808008312DF
:1017D4000313A200220888000914891420308312FC
:1017E4000313A000A00BF42B000083120313891031
:1017F4000D3083120313A100FB30A000A00B002CBA
:10180400A10B002C080083120313A1001D2C210836
:1018140084000A128A1500200A128A159900831678
:101824000313981C162C172C112C0130831203134C
:10183400A0002008A107210884000A128A150020AC
:101844000A128A15003A031D282C292C092C080099
:1018540083120313A401A501201C312C322C382C33
:101864002208A4070318A50A2308A50701300310BA
:10187400A20DA30DFF3E031D392C01300310A10C52
:10188400A00CFF3E031D402C20082104031D4B2CFB
:101894004C2C2E2C2508A1002408A000080083123B
:1018A4000313A500A301A4016C2C230825078400BD
:1018B4000A128A1500200A128A150A128A15E923C7
:1018C4000A128A15013083120313A3070318A40A0A
:1018D4000030A4072308250784000A128A15002073
:1018E4000A128A15003A031D782C792C572C08000B
:1018F40083120313A800A401A5012008A200A301D8
:101904002208A6002308A700281C892C8A2C902CC6
:101914002608A4070318A50A2708A5070130031001
:10192400A60DA70DFF3E031D912C0310A80C28083B
:10193400031D9D2C9E2C862C2508A1002408A000A4
:101944000800831603131E08F20006300310F20C7D
:10195400FF3E031DA82C7208F300F4017308F50080
:101964007408F600831203131E08F200F301031037
:10197400F20DF30D0310F20DF30D7208F700730866
:10198400F80075087704F90076087804FA007A08F4
:10199400F1007908F000080003308316031788006B
:1019A4008901033083160313850086018030870084
:1019B400880189018B170B170C17831203131F0857
:1019C4003F3940389F00C3309F051F140C130A127F
:1019D4008A1546250A128A150A128A15BC230A1288
:1019E4008A15831203138501860187018801890101
:1019F40083160313AC01AD01A601A701AA01AB0133
:101A0400A201A3010800831203130C1F0A2D0B2D3E
:101A14003F2D1F0CFB007B0C0F39003A031D132DC7
:101A2400142D262D0A128A15A3240A128A15710868
:101A340083160313AD007008AC00831203131F0850
:101A4400C33904389F003E2D1F0CFB007B0C0F395B
:101A5400013A031D2E2D2F2D3E2D0A128A15A32483
:101A64000A128A15710883160313AB007008AA00C2
:101A7400C330831203139F050C137D088A007C0E68
:101A84008300FE0E7E0E09008312031388011A30B0
:101A940083120313A400F730A300A30B4F2DA40B50
:101AA4004F2D542D30300A128A15A6230A128A1596
:101AB400073083120313A4007C30A300A30B602D12
:101AC400A40B602D000030300A128A15A6230A12D6
:101AD4008A15343083120313A300A30B6F2D000067
:101AE40030300A128A15A6230A128A1538300A12CF
:101AF4008A15A6230A128A1510300A128A15A623FB
:101B04000A128A1501300A128A15A6230A128A15A6
:101B140006300A128A15A6230A128A1510300A12F0
:101B24008A15A6230A128A150C300A128A15A623CE
:101B34000A128A15823083120313A400DD30A30035
:101B4400A30BA22DA40BA22D0800031083120313D0
:101B5400640D650DE6006608EC006C08031DB32DEA
:101B6400B42DBD2D0030E5000030E4000030E3006A
:101B74000030E200222E6208E6006308E7006408F1
:101B8400E8006508E9001F300310E90CE80CE70CD5
:101B9400E60CFF3E031DC62D6608EA006A08EB004A
:101BA400E417FF30E205FF30E305FF30E4050030C1
:101BB400E5059630EC02EC1FE02DE12DFB2D6C08C1
:101BC400803A973E0318E72DE82DE92DB42D013016
:101BD4000310E50CE40CE30CE20CFF3E031DEA2DBC
:101BE4000130E6006608EC07031DF92DFA2DE92DF6
:101BF400122E20306C02031C002E012E0D2EB42D4B
:101C04000130E6000310E20DE30DE40DE50DE60BF3
:101C1400042E0130EC026C08031D112E122E022E2C
:101C24006B080319162E172E222EE209E309E40984
:101C3400E509E20A0319E30A0319E40A0319E50AA8
:101C44000800831203134F088039D0005008D900CC
:101C54004F08D0005007D1005108E000CE1F332EAA
:101C6400342E352E601460080319392E3A2E4A2E6C
:101C7400600A031D3E2E3F2E472E0030CF00003059
:101C8400CE000030CD000030CC00CE17CF01522E54
:101C94000030CF000030CE000030CD000030CC004A
:101CA4004B088039D0005008D9064B08D0005007A3
:101CB400D1005108E100CA1F602E612E622E61140A
:101CC40061080319662E672E772E610A031D6B2E99
:101CD4006C2E742E0030CB000030CA000030C900D6
:101CE4000030C800CA17CB017F2E0030CB00003073
:101CF400CA000030C9000030C8004B084A04490437
:101D04004804031D862E872EA02E0030CF000030FD
:101D1400CE000030CD000030CC008030CE047F30C7
:101D2400CF045908D0005008CF044F08CB004E0808
:101D3400CA004D08C9004C08C800FF2F6008031DE5
:101D4400A42EA52EAE2E0030CB000030CA000030E9
:101D5400C9000030C800FF2F6008D000D10151082D
:101D6400D30061085002D200031CD30352087F3E03
:101D7400DA0053080318013E003EDB004F08D80088
:101D84004E08D7004D08D6004C08D5000030CF00CF
:101D94000030CE000030CD000030CC000030DF0039
:101DA4000030DE000030DD000030DC00E101242FD3
:101DB40061080319DE2EDF2EFF2E0130D000031040
:101DC400D50DD60DD70DD80DD00BE12E0130D00096
:101DD4000310CC0DCD0DCE0DCF0DD00BEA2EDF1F91
:101DE400F42EF52EF62E4C140130D0000310DC0D29
:101DF400DD0DDE0DDF0DD00BF82E4B085802031D50
:101E04000D2F4A085702031D0D2F49085602031DC2
:101E14000D2F48085502031C102F112F202F5F1778
:101E24004808D5024908031C490FD6024A08031C76
:101E34004A0FD7024B08031C4B0FD8020130D000C5
:101E44005008E1071A306102031C292F2A2FDA2EC9
:101E540058085704560455040319312F322F512FB3
:101E64005C14512F0130D0000310CC0DCD0DCE0DDC
:101E7400CF0DD00B362FDF1F402F412F422F4C1494
:101E84000130D0000310DC0DDD0DDE0DDF0DD00BB5
:101E9400442FFF30DA070318DB0AFF30DB07CE1FBD
:101EA400542F552F342FE101DF1F592F5A2F762F2E
:101EB400FF305C05D000FF305D05D100FF305E05CA
:101EC400D2007F305F05D3005308520451045004FC
:101ED40003196D2F6E2F712FE101E10A762F4C1C2F
:101EE400742F752F762F6E2F610803197A2F7B2F8D
:101EF400AC2F0130CC07003003180130CD0700307F
:101F040003180130CE07003003180130CF074F1CEF
:101F14008C2F8D2FAC2F4C08D0004D08D1004E08CB
:101F2400D2004F08D3000130D400530DD30CD20C8F
:101F3400D10CD00CD40B972F5308CF005208CE00ED
:101F44005108CD005008CC000130DA070318DB0A31
:101F54000030DB075B08803AFF0080307F02031DFE
:101F6400B52FFF305A02031CB82FB92FC72FFF30EB
:101F740083120313DA000030DB000030CF0000309E
:101F8400CE000030CD000030CC00831203135B0878
:101F9400803AFF0080307F02031DD22F01305A02A5
:101FA4000318D52FD62FE32F83120313DA01DB0195
:101FB4000030CF000030CE000030CD000030CC0027
:101FC400D901831203135A08D0005008E000601CA2
:101FD400EC2FED2FEF2FCE17F32F7F30D0005008CA
:101FE400CE056008D0000310500CD1005108CF007A
:0C1FF4005908D0005008CF04972E0800B8
:04400E00F43FFF3F3D
:00000001FF
