:020000040000FA
:060000000A128A110C280F
:10000800FE00030EF1000A08F2000A128A111528F0
:100018000A128A110F28F501F60183010A128A11C2
:10002800CF280B1C18281928322883120313061806
:100038001E281F282728861C222823282728013025
:10004800F0007008F607061C2A282B283128861885
:100058002E282F2831280130F6020B1083120313A3
:100068008C1D372838288C281412141B3C283D284E
:100078004128941F4028412848281308F000700898
:10008800F50014139413141683160313941A4D28A9
:100098004E286928141951285228692883120313F5
:1000A8001308F0007008F5008C111416831603135A
:1000B800141C5F2860285A28831203131308880029
:1000C8005330F000F00B66288928941A6C286D28A4
:1000D8008928141D7028712889288312031313088E
:1000E800F0007008F50083160313141077088312C4
:1000F8000313930014165330F000F00B8128831675
:1001080003131418882889288328831203138C1151
:1001180072088A00710E8300FE0E7E0E0900831697
:1001280003178801890183160313850103308600AC
:1001380087018801890181130330950003309600F7
:100148008B178B150B1002300A128A11B5200A1270
:100158008A118312031385018601870188018901A9
:100168000800F300730883160313930036308312D4
:100178000313940080308316031394000130910018
:10018800871507168B170B17831203138C11831609
:1001980003138C1508000A128A1193200A128A1177
:1001A80076080F39F4007408F700770883120313F0
:0A01B8008800D4280A128A110C28CE
:04400E00F43FFF3F3D
:00000001FF
