:020000040000FA
:060000000A128A110C280F
:10000800FE00030EF1000A08F2000A128A111428F1
:100018000A128A110F28F30183010A128A1154283F
:100028000B1C1728182831288312031306181D28BB
:100038001E282628861C2128222826280130F00080
:100048007008F307061C29282A28302886182D2826
:100058002E2830280130F3020B1072088A00710E26
:100068008300FE0E7E0E090083160317880189019E
:1000780083160313850103308600870188018901EF
:10008800811303309500033096008B178B150B10E6
:1000980083120313850186018701880189010800FD
:1000A8000A128A1138200A128A1173080F3983122A
:0C00B8000313880059280A128A110C2832
:04400E00F43FFF3F3D
:00000001FF
