:020000040000FA
:060000000A128A110C280F
:10000800FE00030EF1000A08F2000A128A113128D4
:100018000A128A110F28F30183010A128A114D2846
:10002800831603178801890183160313850103309A
:100038008600870188018901811303309500033008
:1000480096000B108B178B158312031385018601FD
:10005800870188018901F30108000B1C3428352821
:1000680046288312031306183A283B283F280130F4
:10007800F0007008F3078618422843284528013005
:10008800F3020B1072088A00710E8300FE0E7E0EBA
:1000980009000A128A1114200A128A11730883129D
:0C00A8000313870052280A128A110C284A
:04400E00F43FFF3F3D
:00000001FF
