:020000040000FA
:060000000A128A110C280F
:10000800FE00030EF3000A08F4000A128A15AD2E4A
:100018000A128A110F28F80183160313B001B101DF
:10002800B201B30183010A128A11582D83120313F6
:1000380031088039B6003608BB003108B6003607EB
:10004800B7003708C100B01F2A282B282C284114D4
:1000580041080319302831284028410A031D352852
:1000680036283E280030B1000030B0000030AF0024
:100078000030AE00B01748280030B1000030B000A2
:100088000030AF000030AE0035088039B6003608C1
:10009800BB063508B6003607B7003708BC00B41FE2
:1000A8005628572858283C143C0803195C285D2812
:1000B8006C283C0A031D612862286A280030B500B4
:1000C8000030B4000030B3000030B200B417742818
:1000D8000030B5000030B4000030B3000030B2008A
:1000E8003C080319782879287E284108031D7D28B3
:1000F8007E2887280030B1000030B0000030AF0003
:100108000030AE007A2B2E08B6003608F500340809
:100118000A128A1508260A128A117608831203130E
:10012800C7007508C6004608B600B701B801B9018E
:100138003908C0003808BF003708BE003608BD00BF
:100148004708B600B701B801B9013908C500380831
:10015800C4003708C3003608C2002F08B6003608A6
:10016800F50033080A128A1508260A128A11760839
:1001780083120313C7007508C6004608B600B70106
:10018800B801B9013608BD07370803110318013E45
:100198000319CF28BE07380803110318013E0319B5
:1001A800D628BF07390803110318013E0319DD28B3
:1001B800C0074708B600B701B801B9013608C20739
:1001C800370803110318013E0319EB28C307380841
:1001D80003110318013E0319F228C4073908031153
:1001E8000318013E0319F928C5073008B600360878
:1001F800F50032080A128A1508260A128A117608AA
:1002080083120313C7007508C6004608B600B70175
:10021800B801B9013608BD07370803110318013EB4
:1002280003191729BE07380803110318013E0319DB
:100238001E29BF07390803110318013E0319252990
:10024800C0074708B600B701B801B9013608C207A8
:10025800370803110318013E03193329C307380867
:1002680003110318013E03193A29C4073908031179
:100278000318013E03194129C5070830B6000310C9
:10028800BD0DBE0DBF0DC00DB60B43292F08B6001E
:100298003608F50032080A128A1508260A128A1149
:1002A800760883120313C7007508C6004608B6000F
:1002B8004708B700B801B9013608BD073708031168
:1002C8000318013E03196929BE07380803110318EA
:1002D800013E03197029BF07390803110318013EAD
:1002E80003197729C0072E08B6003608F500330829
:1002F8000A128A1508260A128A117608831203132D
:10030800C7007508C6004608B6004708B700B80118
:10031800B9013608BD07370803110318013E031950
:100328009629BE07380803110318013E03199D29B1
:10033800BF07390803110318013E0319A429C00790
:100348000830B6000310BD0DBE0DBF0DC00DB60BB5
:10035800A6292E08B6003608F50032080A128A15B2
:1003680008260A128A11760883120313C700750833
:10037800C6004608B6004708B700B801B9013608F4
:10038800BD07370803110318013E0319CC29BE071E
:10039800380803110318013E0319D329BF07390888
:1003A80003110318013E0319DA29C0072F08B60004
:1003B8003608F50034080A128A1508260A128A1126
:1003C800760883120313C7007508C6004608B600EE
:1003D8004708B700B801B9013608C2073708031142
:1003E8000318013E0319F929C30738080311031834
:1003F800013E0319002AC407390803110318013EF6
:100408000319072AC5073008B6003608F50033086F
:100418000A128A1508260A128A117608831203130B
:10042800C7007508C6004608B6004708B700B801F7
:10043800B9013608C207370803110318013E03192A
:10044800262AC307380803110318013E03192D2A69
:10045800C407390803110318013E0319342AC507D4
:100468003008B6003608F50034080A128A1508263E
:100478000A128A11760883120313C7007508C6008A
:100488004608B6004708B700B801B901083003109C
:10049800B60DB70DB80DB90DFF3E031D4B2A360832
:1004A800C207370803110318013E03195C2AC30762
:1004B800380803110318013E0319632AC4073908D1
:1004C80003110318013E03196A2AC5073D08B6003F
:1004D8003E08B7003F08B8004008B90018300310BC
:1004E800B90CB80CB70CB60CFF3E031D732A3608BE
:1004F800C207370803110318013E0319842AC307EA
:10050800380803110318013E03198B2AC407390858
:1005180003110318013E0319922AC5070830B600D3
:100528000310BD0DBE0DBF0DC00DB60B942A4108BA
:100538003C07B600B701B70D3608823EC60037083B
:100548000318013EFF3EC700C62A0130B60003105B
:10055800C20DC30DC40DC50DB60BAB2AC01FB52AFD
:10056800B62AB72A42140130B6000310BD0DBE0DDD
:10057800BF0DC00DB60BB92AFF30C6070318C70A4E
:10058800FF30C707C41FC92ACA2AA92ABC01C01F2D
:10059800CE2ACF2AEB2AFF303D05B600FF303E05B4
:1005A800B700FF303F05B8007F304005B900390873
:1005B8003804370436040319E22AE32AE62ABC0180
:1005C800BC0AEB2A421CE92AEA2AEB2AE32A3C085D
:1005D8000319EF2AF02A212B0130C2070030031833
:1005E8000130C307003003180130C4070030031876
:1005F8000130C507451C012B022B212B4208B600F0
:100608004308B7004408B8004508B9000130BA00EB
:10061800390DB90CB80CB70CB60CBA0B0C2B390841
:10062800C5003808C4003708C3003608C2000130C6
:10063800C6070318C70A0030C7074708803AFF00F3
:1006480080307F02031D2A2BFF304602031C2D2B0E
:100658002E2B392B7F3083120313C5008030C40042
:100668000030C3000030C2006E2B8312031347080A
:10067800803AFF0080307F02031D442B0130460280
:100688000318472B482B542B003083120313C50043
:100698000030C4000030C3000030C200BB016E2B24
:1006A800831203134608B6003608C100FF30C2059E
:1006B800FF30C3057F30C4050030C505411C652BDC
:1006C800662B672BC4174108B6000310360CB70019
:1006D8003708C5003B08B6003608C5044508B10010
:1006E8004408B0004308AF004208AE000800831277
:1006F80003134F088039D0005008D9004F08D000A4
:100708005007D1005108E000CE1F8B2B8C2B8D2B6E
:10071800601460080319912B922BA22B600A031D09
:10072800962B972B9F2B0030CF000030CE00003047
:10073800CD000030CC00CE17CF01AA2B0030CF005F
:100748000030CE000030CD000030CC004B0880399E
:10075800D0005008D9064B08D0005007D1005108E6
:10076800E100CA1FB82BB92BBA2B61146108031911
:10077800BE2BBF2BCF2B610A031DC32BC42BCC2B45
:100788000030CB000030CA000030C9000030C8007B
:10079800CA17CB01D72B0030CB000030CA0000307D
:1007A800C9000030C8004B084A0449044804031D26
:1007B800DE2BDF2BF82B0030CF000030CE000030CE
:1007C800CD000030CC008030CE047F30CF045908F3
:1007D800D0005008CF044F08CB004E08CA004D087F
:1007E800C9004C08C800572D6008031DFC2BFD2BC1
:1007F800062C0030CB000030CA000030C9000030A1
:10080800C800572D6008D000D1015108D3006108F5
:100818005002D200031CD30352087F3EDA0053086B
:100828000318013E003EDB004F08D8004E08D700F1
:100838004D08D6004C08D5000030CF000030CE005F
:100848000030CD000030CC000030DF000030DE008A
:100858000030DD000030DC00E1017C2C6108031968
:10086800362C372C572C0130D0000310D50DD60D5F
:10087800D70DD80DD00B392C0130D0000310CC0D7A
:10088800CD0DCE0DCF0DD00B422CDF1F4C2C4D2C97
:100898004E2C4C140130D0000310DC0DDD0DDE0DA4
:1008A800DF0DD00B502C4B085802031D652C4A084D
:1008B8005702031D652C49085602031D652C48087C
:1008C8005502031C682C692C782C5F174808D50240
:1008D8004908031C490FD6024A08031C4A0FD702CD
:1008E8004B08031C4B0FD8020130D0005008E10719
:1008F8001A306102031C812C822C322C58085704B0
:10090800560455040319892C8A2CA92C5C14A92C8B
:100918000130D0000310CC0DCD0DCE0DCF0DD00B76
:100928008E2CDF1F982C992C9A2C4C140130D00057
:100938000310DC0DDD0DDE0DDF0DD00B9C2CFF3020
:10094800DA070318DB0AFF30DB07CE1FAC2CAD2C0F
:100958008C2CE101DF1FB12CB22CCE2CFF305C05B2
:10096800D000FF305D05D100FF305E05D2007F303A
:100978005F05D30053085204510450040319C52CD1
:10098800C62CC92CE101E10ACE2C4C1CCC2CCD2C58
:10099800CE2CC62C61080319D22CD32C042D01307F
:1009A800CC07003003180130CD07003003180130A0
:1009B800CE07003003180130CF074F1CE42CE52C7C
:1009C800042D4C08D0004D08D1004E08D2004F0825
:1009D800D3000130D400530DD30CD20CD10CD00C61
:1009E800D40BEF2C5308CF005208CE005108CD008D
:1009F8005008CC000130DA070318DB0A0030DB07A7
:100A08005B08803AFF0080307F02031D0D2DFF3008
:100A18005A02031C102D112D1F2DFF3083120313B2
:100A2800DA000030DB000030CF000030CE000030AC
:100A3800CD000030CC00831203135B08803AFF001E
:100A480080307F02031D2A2D01305A0203182D2DF4
:100A58002E2D3B2D83120313DA01DB010030CF006A
:100A68000030CE000030CD000030CC00D901831218
:100A780003135A08D0005008E000601C442D452D8F
:100A8800472DCE174B2D7F30D0005008CE0560087B
:100A9800D0000310500CD1005108CF005908D000E5
:100AA8005008CF04EF2B08000A128A11CE270A1229
:100AB8008A11831203139F14203083160313A00096
:100AC800A00B642D00008316031333083106031DA1
:100AD8006E2D6F2D752D320830060319742D752D66
:100AE800B12E3308A0002008B1003208A000200869
:100AF800B0003308A000A101A201A30123088312BA
:100B08000313A30083160313220883120313A200FE
:100B180083160313210883120313A10083160313FA
:100B2800200883120313A00000300A128A154427F4
:100B38000A128A11831203132308B5002208B4008D
:100B48002108B3002008B2004530B1009C30B00045
:100B58004030AF000030AE000A128A111A200A1283
:100B68008A11831203133108CF003008CE002F08F2
:100B7800CD002E08CC004330CB007F30CA000030B7
:100B8800C9000030C8000A128A117B230A128A1190
:100B9800831203134B08E5004A08E4004908E30000
:100BA8004808E2000A128A1531260A128A118312AD
:100BB8000313630883160313A70083120313620841
:100BC80083160313A6003208A000A101A201A30105
:100BD800230883120313A300831603132208831226
:100BE8000313A20083160313210883120313A10021
:100BF80083160313200883120313A00000300A127F
:100C08008A1544270A128A11831203132308B50090
:100C18002208B4002108B3002008B2004530B10012
:100C28009C30B0004030AF000030AE000A128A118C
:100C38001A200A128A11831203133108CF003008D0
:100C4800CE002F08CD002E08CC004330CB007F30DB
:100C5800CA000030C9000030C8000A128A117B237C
:100C68000A128A11831203134B08E5004A08E400AC
:100C78004908E3004808E2000A128A1531260A12D8
:100C88008A1183120313630883160313A5008312C2
:100C98000313620883160313A4002708831203139F
:100CA800AC0083160313260883120313AB00AF307E
:100CB80083160313A000200883120313AD00AD3080
:100CC80083160313A100210883120313AE00AB306F
:100CD80083160313A200220883120313AF00A9305E
:100CE80083160313A300230883120313B0000A1208
:100CF8008A11BB260A128A11831603132508831248
:100D08000313AC0083160313240883120313AB00E8
:100D1800AE3083160313A000200883120313AD001E
:100D2800AC3083160313A100210883120313AE000D
:100D3800AA3083160313A200220883120313AF00FC
:100D4800A83083160313A300230883120313B000EB
:100D58000A128A11BB260A128A1183160313330852
:100D68008312031386005D2D0A128A110C28E830BD
:100D780083120313A4000330A5002C08A7002B0836
:100D8800A6000A128A1188270A128A1183120313ED
:100D98002408B1002D0884003108831380006430D2
:100DA800A4000030A5002D0884000008B100B2019D
:100DB8003108A0003208A1001830A200FC30A300BE
:100DC8000A128A15E1250A128A11831203132B08C5
:100DD8002007A6002C0803182C0A2107A7000A12CE
:100DE8008A1188270A128A11831203132408B30070
:100DF8002E0884003308831380000A30A4000030D2
:100E0800A5002D0884000008B100B2013108A00037
:100E18003208A1001830A200FC30A3000A128A157B
:100E2800E1250A128A11831203132008B30021084E
:100E3800B4002E08840083130008B500B6013508F5
:100E4800A0003608A1009C30A200FF30A3000A12BF
:100E58008A15E1250A128A11831203132008330721
:100E6800B70021080318210A3407B8002B083707F0
:100E7800A6002C0803182C0A3807A7000A128A11A2
:100E880088270A128A11831203132408B9002F082D
:100E980084003908831380001830B1003108F50048
:100EA8002D08840000080A128A15B0250A128A1132
:100EB80083120313B2009C30B3003308F5002E08E8
:100EC8008400831300080A128A15B0250A128A11B1
:100ED80083120313B400F630B5003508F5002F0867
:100EE8008400831300080A128A15B0250A128A1191
:100EF80083120313340732072B07B6003008840027
:100F0800360883138000080083120313A901AA017D
:100F1800240825040319912F922FC92FA801A80A84
:100F2800A02F01300310A40DA50DFF3E031D962F21
:100F38000130F7007708A807A51FA32FA42F952F26
:100F480001300310A90DAA0DFF3E031DA52F25088A
:100F58002702031DB12F24082602031CB42FB52F26
:100F6800BC2F2408A6022508031CA703A7022914DE
:100F780001300310A50CA40CFF3E031DBD2F01304A
:100F8800A802031DC82FC92FA42F2A08A5002908C5
:100F9800A400080003308316031788008901033072
:100FA800831603138500860187018801890183124E
:100FB80003131F083F3940389F00C3309F051F1493
:100FC8000C1300300A128A15C7250A128A118B17CA
:100FD8000B17831603130C1783120313850186015D
:100FE8008701880189010800831203131E08F00095
:080FF8007008F1007108080007
:101B600083120313A100A001211CB72DB82DBC2D99
:101B70007508F6007608A0070310F50D0310A10CF8
:101B80002108031DC42DC52DB42D20080800F50023
:101B900075088316031393003630831203139400E1
:101BA00080308316031394000130910087150716C7
:101BB0008B170B17831203138C11831603138C15C9
:101BC0000800F501F60183120313201CE82DE92D0E
:101BD000EF2D2208F5070318F60A2308F60701304F
:101BE0000310A20DA30DFF3E031DF02D01300310C5
:101BF000A10CA00CFF3E031DF72D20082104031D9E
:101C0000022E032EE32D7608A1007508A00008001F
:101C100083120313A600A201A3017508A000A1016D
:101C20002008A4002108A500261C172E182E1E2E01
:101C30002408A2070318A30A2508A30701300310EC
:101C4000A40DA50DFF3E031D1F2E0310A60C260894
:101C5000031D2B2E2C2E142E2308F6002208F5002F
:101C60000800031083120313640D650DE600660877
:101C7000EC006C08031D3D2E3E2E472E0030E50083
:101C80000030E4000030E3000030E200AC2E6208D7
:101C9000E6006308E7006408E8006508E9001F3013
:101CA0000310E90CE80CE70CE60CFF3E031D502E78
:101CB0006608EA006A08EB00E417FF30E205FF302F
:101CC000E305FF30E4050030E5059630EC02EC1F3B
:101CD0006A2E6B2E852E6C08803A973E0318712E63
:101CE000722E732E3E2E01300310E50CE40CE30C33
:101CF000E20CFF3E031D742E0130E6006608EC077F
:101D0000031D832E842E732E9C2E20306C02031C08
:101D10008A2E8B2E972E3E2E0130E6000310E20D08
:101D2000E30DE40DE50DE60B8E2E0130EC026C08A0
:101D3000031D9B2E9C2E8C2E6B080319A02EA12E0A
:101D4000AC2EE209E309E409E509E20A0319E30A12
:101D50000319E40A0319E50A0800831203130C1F90
:101D6000B22EB32EE52E1F0CF200720C0F39003A82
:101D7000031DBB2EBC2ECD2E0A128A11F8270A1283
:101D80008A15F200720883160313B300831203133B
:101D90001F08C33904389F00E42E1F0CF200720C98
:101DA0000F39013A031DD52ED62EE42E0A128A11C0
:101DB000F8270A128A15F200720883160313B2007C
:101DC000C330831203139F050C138C1DE82EE92EDC
:101DD0003D2F1412141BED2EEE2EF22E941FF12E19
:101DE000F22EF92E1308F2007208F800141394135F
:101DF000141683160313941AFE2EFF2E1A2F14198D
:101E0000022F032F1A2F831203131308F2007208F4
:101E1000F8008C11141683160313141C102F112FA5
:101E20000B2F83120313130888005330F200F20BB8
:101E3000172F3A2F941A1D2F1E2F3A2F141D212FC2
:101E4000222F3A2F831203131308F2007208F800AE
:101E5000831603131410330883120313930014160C
:101E60005330F200F20B322F831603131418392F5C
:101E70003A2F342F831203138C1174088A00730EC7
:101E80008300FE0E7E0E090083120313A8002808AB
:101E900003194B2F4C2F602FA31F4F2F502F602F54
:101EA0002009AA002109AB002209AC002309AD00DA
:101EB000AA0A0319AB0A0319AC0A0319AD0A682F61
:101EC0002308AD002208AC002108AB002008AA00BE
:101ED0002308220421042004031D6F2F702F792F63
:101EE0000030A3000030A2000030A1000030A000AC
:101EF000FF2F9630A4002408A9008B2F0130A400E6
:101F00002408A90701300310AD0CAC0CAB0CAA0CD3
:101F1000FF3E031D832FFE302D05031D902F912FB3
:101F20007E2FAD2F0130A4002408A9070130AA0795
:101F3000003003180130AB07003003180130AC0744
:101F4000003003180130AD0701300310AD0CAC0CAC
:101F5000AB0CAA0CFF3E031DA52FFF302D05031D62
:101F6000B22FB32F922FBF2F0130A9020130A4004E
:101F70000310AA0DAB0DAC0DAD0DA40BB82FAC1B0F
:101F8000C22FC32FC92F023029020318C82FC92F0F
:101F9000B42F2918CC2FCD2FD52FFF30AA05FF3015
:101FA000AB057F30AC05FF30AD050310A90C290847
:101FB000A400A501A601A70118300310A40DA50DCA
:101FC000A60DA70DFF3E031DDD2F2408AA0425083A
:101FD000AB042608AC042708AD0428080319F12F28
:101FE000F22FF72FA31FF52FF62FF72FAD172D0880
:101FF000A3002C08A2002B08A1002A08A0000800BA
:04400E00F43FFF3F3D
:00000001FF
