:020000040000FA
:060000000A128A110C280F
:10000800FE00030EF0000A08F1000A128A15882D76
:100018000A128A110F2883160313AC01AD01AE0131
:10002800AF01B00183010A128A11582D83120313FC
:1000380029088039AE002E08B3002908AE002E0723
:10004800AF002F08B900A81F2A282B282C283914FC
:1000580039080319302831284028390A031D352862
:1000680036283E280030A9000030A8000030A7003C
:100078000030A600A81748280030A9000030A800C2
:100088000030A7000030A6002D088039AE002E08E9
:10009800B3062D08AE002E07AF002F08B800AC1F1E
:1000A8005628572858283814380803195C285D281A
:1000B8006C28380A031D612862286A280030AD00C0
:1000C8000030AC000030AB000030AA00AC17742838
:1000D8000030AD000030AC000030AB000030AA00AA
:1000E80038080319782879287E283908031D7D28BF
:1000F8007E2887280030A9000030A8000030A7001B
:100108000030A6007A2B2608AE002E08F2002C0834
:100118000A128A155B260A128A11730883120313BE
:10012800BF007208BE003E08AE00AF01B001B101C9
:100138003108B7003008B6002F08B5002E08B40003
:100148003F08AE00AF01B001B1013108BD00300871
:10015800BC002F08BB002E08BA002708AE002E08E6
:10016800F2002B080A128A155B260A128A117308F4
:1001780083120313BF007208BE003E08AE00AF0131
:10018800B001B1012E08B4072F0803110318013E6E
:100198000319CF28B507300803110318013E0319C6
:1001A800D628B607310803110318013E0319DD28C4
:1001B800B7073F08AE00AF01B001B1012E08BA077A
:1001C8002F0803110318013E0319EB28BB07300859
:1001D80003110318013E0319F228BC073108031163
:1001E8000318013E0319F928BD072808AE002E0898
:1001F800F2002A080A128A155B260A128A11730865
:1002080083120313BF007208BE003E08AE00AF01A0
:10021800B001B1012E08B4072F0803110318013EDD
:1002280003191729B507300803110318013E0319EC
:100238001E29B607310803110318013E03192529A1
:10024800B7073F08AE00AF01B001B1012E08BA07E9
:100258002F0803110318013E03193329BB0730087F
:1002680003110318013E03193A29BC073108031189
:100278000318013E03194129BD070830AE000310D9
:10028800B40DB50DB60DB70DAE0B43292708AE005A
:100298002E08F2002A080A128A155B260A128A1109
:1002A800730883120313BF007208BE003E08AE0035
:1002B8003F08AF00B001B1012E08B4072F080311A1
:1002C8000318013E03196929B507300803110318FB
:1002D800013E03197029B607310803110318013EBE
:1002E80003197729B7072608AE002E08F2002B0855
:1002F8000A128A155B260A128A11730883120313DD
:10030800BF007208BE003E08AE003F08AF00B00153
:10031800B1012E08B4072F0803110318013E031971
:100328009629B507300803110318013E03199D29C2
:10033800B607310803110318013E0319A429B707AA
:100348000830AE000310B40DB50DB60DB70DAE0BE9
:10035800A6292608AE002E08F2002A080A128A15D5
:100368005B260A128A11730883120313BF007208EE
:10037800BE003E08AE003F08AF00B001B1012E0834
:10038800B4072F0803110318013E0319CC29B50738
:10039800300803110318013E0319D329B6073108A1
:1003A80003110318013E0319DA29B7072708AE001D
:1003B8002E08F2002C080A128A155B260A128A11E6
:1003C800730883120313BF007208BE003E08AE0014
:1003D8003F08AF00B001B1012E08BA072F0803117A
:1003E8000318013E0319F929BB0730080311031844
:1003F800013E0319002ABC07310803110318013E06
:100408000319072ABD072808AE002E08F2002B089A
:100418000A128A155B260A128A11730883120313BB
:10042800BF007208BE003E08AE003F08AF00B00132
:10043800B1012E08BA072F0803110318013E03194A
:10044800262ABB07300803110318013E03192D2A79
:10045800BC07310803110318013E0319342ABD07EC
:100468002808AE002E08F2002C080A128A155B260E
:100478000A128A11730883120313BF007208BE00A0
:100488003E08AE003F08AF00B001B10108300310CC
:10049800AE0DAF0DB00DB10DFF3E031D4B2A2E085A
:1004A800BA072F0803110318013E03195C2ABB077A
:1004B800300803110318013E0319632ABC073108E9
:1004C80003110318013E03196A2ABD073408AE0058
:1004D8003508AF003608B0003708B10018300310EF
:1004E800B10CB00CAF0CAE0CFF3E031D732A2E08E6
:1004F800BA072F0803110318013E0319842ABB0702
:10050800300803110318013E03198B2ABC07310870
:1005180003110318013E0319922ABD070830AE00E3
:100528000310B40DB50DB60DB70DAE0B942A3908EE
:100538003807AE00AF01AF0D2E08823EBE002F086F
:100548000318013EFF3EBF00C62A0130AE0003106B
:10055800BA0DBB0DBC0DBD0DAE0BAB2AB71FB52A2E
:10056800B62AB72A3A140130AE000310B40DB50DFF
:10057800B60DB70DAE0BB92AFF30BE070318BF0A78
:10058800FF30BF07BC1FC92ACA2AA92AB801B71F4A
:10059800CE2ACF2AEB2AFF303405AE00FF303505CE
:1005A800AF00FF303605B0007F303705B1003108A5
:1005B80030042F042E040319E22AE32AE62AB8019C
:1005C800B80AEB2A3A1CE92AEA2AEB2AE32A38086D
:1005D8000319EF2AF02A212B0130BA07003003183B
:1005E8000130BB07003003180130BC070030031886
:1005F8000130BD073D1C012B022B212B3A08AE0010
:100608003B08AF003C08B0003D08B1000130B20023
:10061800310DB10CB00CAF0CAE0CB20B0C2B310879
:10062800BD003008BC002F08BB002E08BA000130FE
:10063800BE070318BF0A0030BF073F08803AFF0013
:1006480080307F02031D2A2BFF303E02031C2D2B16
:100658002E2B392B7F3083120313BD008030BC0052
:100668000030BB000030BA006E2B831203133F0822
:10067800803AFF0080307F02031D442B01303E0288
:100688000318472B482B542B003083120313BD004B
:100698000030BC000030BB000030BA00B3016E2B44
:1006A800831203133E08AE002E08B900FF30BA05C6
:1006B800FF30BB057F30BC050030BD05391C652BFC
:1006C800662B672BBC173908AE0003102E0CAF0041
:1006D8002F08BD003308AE002E08BD043D08A90050
:1006E8003C08A8003B08A7003A08A60008008312A7
:1006F800031347088039C8004808D1004708C800D4
:100708004807C9004908D800C61F8B2B8C2B8D2B96
:10071800581458080319912B922BA22B580A031D21
:10072800962B972B9F2B0030C7000030C600003057
:10073800C5000030C400C617C701AA2B0030C70087
:100748000030C6000030C5000030C40043088039BE
:10075800C8004808D1064308C8004807C900490826
:10076800D900C21FB82BB92BBA2B59145908031931
:10077800BE2BBF2BCF2B590A031DC32BC42BCC2B4D
:100788000030C3000030C2000030C1000030C0009B
:10079800C217C301D72B0030C3000030C20000309D
:1007A800C1000030C0004308420441044004031D56
:1007B800DE2BDF2BF82B0030C7000030C6000030DE
:1007C800C5000030C4008030C6047F30C70451081B
:1007D800C8004808C7044708C3004608C2004508BF
:1007E800C1004408C000572D5808031DFC2BFD2BE1
:1007F800062C0030C3000030C2000030C1000030B9
:10080800C000572D5808C800C9014908CB0059082D
:100818004802CA00031CCB034A087F3ED2004B089B
:100828000318013E003ED3004708D0004608CF0019
:100838004508CE004408CD000030C7000030C6008F
:100848000030C5000030C4000030D7000030D600AA
:100858000030D5000030D400D9017C2C5908031988
:10086800362C372C572C0130C8000310CD0DCE0D77
:10087800CF0DD00DC80B392C0130C8000310C40DA2
:10088800C50DC60DC70DC80B422CD71F4C2C4D2CBF
:100898004E2C44140130C8000310D40DD50DD60DCC
:1008A800D70DC80B502C43085002031D652C420875
:1008B8004F02031D652C41084E02031D652C40089C
:1008C8004D02031C682C692C782C57174008CD0260
:1008D8004108031C410FCE024208031C420FCF02FD
:1008E8004308031C430FD0020130C8004808D90749
:1008F8001A305902031C812C822C322C50084F04C8
:100908004E044D040319892C8A2CA92C5414A92CA3
:100918000130C8000310C40DC50DC60DC70DC80BA6
:100928008E2CD71F982C992C9A2C44140130C8006F
:100938000310D40DD50DD60DD70DC80B9C2CFF3048
:10094800D2070318D30AFF30D307C61FAC2CAD2C2F
:100958008C2CD901D71FB12CB22CCE2CFF305405CA
:10096800C800FF305505C900FF305605CA007F3062
:100978005705CB004B084A04490448040319C52C01
:10098800C62CC92CD901D90ACE2C441CCC2CCD2C70
:10099800CE2CC62C59080319D22CD32C042D013087
:1009A800C407003003180130C507003003180130B0
:1009B800C607003003180130C707471CE42CE52C94
:1009C800042D4408C8004508C9004608CA0047085D
:1009D800CB000130CC004B0DCB0CCA0CC90CC80C99
:1009E800CC0BEF2C4B08C7004A08C6004908C500C5
:1009F8004808C4000130D2070318D30A0030D307CF
:100A08005308803AFF0080307F02031D0D2DFF3010
:100A18005202031C102D112D1F2DFF3083120313BA
:100A2800D2000030D3000030C7000030C6000030CC
:100A3800C5000030C400831203135308803AFF0036
:100A480080307F02031D2A2D0130520203182D2DFC
:100A58002E2D3B2D83120313D201D3010030C70082
:100A68000030C6000030C5000030C400D101831238
:100A780003135208C8004808D800581C442D452DB7
:100A8800472DC6174B2D7F30C8004808C6055808A3
:100A9800C8000310480CC9004908C7005108C8001D
:100AA8004808C704EF2B08000A128A1535260A12CF
:100AB8008A11C73083120313E500622DE50B612DFF
:100AC800652DFF300A128A1582250A128A11862D91
:100AD8000A128A1596250A128A1183120313E50051
:100AE800650883160313B000922D0A128A159625FD
:100AF8000A128A1183120313E5006508831603138B
:100B0800AF00922D00308312031309180130003A08
:100B180003196C2D013A0319792D922DC7308312D0
:100B28000313E500972DE50B962D9A2D83160313D5
:100B380030082E06031DA12DA22DA82D2F082D0645
:100B48000319A72DA82D142F300883120313E500CD
:100B5800650883160313AE002F0883120313E500FC
:100B6800650883160313AD00300883120313E500EC
:100B7800E601E701E8016808F5006708F40066087F
:100B8800F3006508F20000300A128A1544270A1299
:100B98008A11750883120313AD007408AC0073083A
:100BA800AB007208AA004530A9009C30A80040306C
:100BB800A7000030A6000A128A111A200A128A1108
:100BC800831203132908C7002808C6002708C50090
:100BD8002608C4004330C3007F30C2000030C10083
:100BE8000030C0000A128A117B230A128A1183126C
:100BF80003134308DD004208DC004108DB0040081D
:100C0800DA000A128A15C8260A128A1183120313F7
:100C18005B0883160313A300831203135A08831671
:100C28000313A2002F0883120313E500E601E7016E
:100C3800E8016808F5006708F4006608F30065082D
:100C4800F20000300A128A1544270A128A11750820
:100C580083120313AD007408AC007308AB0072086C
:100C6800AA004530A9009C30A8004030A7000030F9
:100C7800A6000A128A111A200A128A118312031373
:100C88002908C7002808C6002708C5002608C40088
:100C98004330C3007F30C2000030C1000030C000C4
:100CA8000A128A117B230A128A118312031343083A
:100CB800DD004208DC004108DB004008DA000A12C7
:100CC8008A15C8260A128A11831203135B08831631
:100CD8000313A100831203135A0883160313A000F9
:100CE800230883120313A500831603132208831213
:100CF8000313A400AB30E5006508A600A930E600A0
:100D08006608A700A730E7006708A800A530E80034
:100D18006808A9000A128A1130270A128A11831654
:100D28000313210883120313A50083160313200855
:100D380083120313A400AA30E5006508A600A830B2
:100D4800E6006608A700A630E7006708A800A430F8
:100D5800E8006808A9000A128A1130270A128A11C5
:100D6800831603132B08303E0A128A159F250A1290
:100D78008A1108300A128A15ED250A128A1183167B
:100D880003132908303E0A128A159F250A128A1170
:100D9800831603132708303E0A128A159F250A1264
:100DA8008A11831603132508303E0A128A159F25D7
:100DB8000A128A1101300A128A15ED250A128A11BF
:100DC800831603132A08303E0A128A159F250A1231
:100DD8008A1108300A128A15ED250A128A1183161B
:100DE80003132808303E0A128A159F250A128A1111
:100DF800831603132608303E0A128A159F250A1205
:100E08008A11831603132408303E0A128A159F2577
:100E18000A128A1105300A128A15ED250A128A115A
:100E2800831203138C1E192F1A2F202F1A08E5007E
:100E3800650883160313AC00831603132C0883126A
:100E480003138600831603132F08831203138800E5
:100E58005D2D0A128A110C28E830F8000330F900D9
:100E6800831203132508FB002408FA000A128A15C6
:100E780082260A128A11780883120313AA00260808
:100E880084002A08831380006430F8000030F900D9
:100E9800260884000008AA00AB012A08F2002B08E3
:100EA800F3001830F400FC30F5000A128A151026F9
:100EB8000A128A118312031324087207FA002508FC
:100EC8000318250A7307FB000A128A1582260A12DC
:100ED8008A11780883120313AC00270884002C08B1
:100EE800831380000A30F8000030F90026088400D7
:100EF8000008AA00AB012A08F2002B08F3001830FA
:100F0800F400FC30F5000A128A1510260A128A111C
:100F1800720883120313AC007308AD00270884001D
:100F280083130008AE00AF012E08F2002F08F3006B
:100F38009C30F400FF30F5000A128A1510260A12B8
:100F48008A117208831203132C07B0007308031860
:100F5800730A2D07B10024083007FA002508031882
:100F6800250A3107FB000A128A1582260A128A11FD
:100F7800780883120313B200280884003208831308
:100F880080001830AA002A08F20026088400000809
:100F98000A128A15AB250A128A1183120313AB00B1
:100FA8009C30AC002C08F20027088400831300084A
:100FB8000A128A15AB250A128A1183120313AD008F
:100FC800F630AE002E08F2002808840083130008CB
:100FD8000A128A15AB250A128A11831203132D07E8
:100FE8002B072407AF00290884002F0883138000EB
:020FF8000800EF
:1010000008308A000408840A8207003420345634E9
:0E1010002C3400342034563400342E34003496
:101B0400F2007208831203139300080071088A001C
:101B1400700E8300FE0E7E0E090083160313141C40
:101B2400942D952D8F2D08000A128A158F250A12DF
:101B34008A158312031313080800F2007208831233
:101B44000313990083160313981CA92DAA2DA42D01
:101B54000800F500F401751CB02DB12DB52D7208E7
:101B6400F3007308F4070310F20D0310F50C750865
:101B7400031DBD2DBE2DAD2D74080800F500831680
:101B840003138712751DC72DC82DCC2D740894001E
:101B94008715D02D72087404940087117508730496
:101BA4008312031394000800831603139816181263
:101BB4008312031398178316031318158316031738
:101BC4008711831603139A0119309900871783121A
:101BD400031318160800F300032E730884000A1276
:101BE4008A1500200A128A1583120313990083169A
:101BF4000313981CFE2DFF2DF92D0130F2007208FD
:101C0400F307730884000A128A1500200A128A1541
:101C1400003A031D0E2E0F2EEF2D0800F601F701DA
:101C2400721C152E162E1C2E7408F6070318F70ABC
:101C34007508F70701300310F40DF50DFF3E031D81
:101C44001D2E01300310F30CF20CFF3E031D242E55
:101C540072087304031D2F2E302E122E7708F30002
:101C64007608F20008008316031788018901831699
:101C740003138501860190308700880101308900B3
:101C84008B170B170C170A128A15D6250A128A15F8
:101C9400F201F301F40120300A128A15C0250A1258
:101CA4008A1583120313850186018701880189013E
:101CB4000800FA00F601F7017208F400F50174084F
:101CC400F8007508F9007A1C682E692E6F2E7808C2
:101CD400F6070318F70A7908F70701300310F80D1F
:101CE400F90DFF3E031D702E0310FA0C7A08031D34
:101CF4007C2E7D2E652E7708F3007608F20008000E
:101D040083120313A101A2017808790403198B2E0D
:101D14008C2EC32EA301A30A9A2E01300310F80DB2
:101D2400F90DFF3E031D902E0130A0002008A307EB
:101D3400F91F9D2E9E2E8F2E01300310A10DA20D92
:101D4400FF3E031D9F2E79087B02031DAB2E7808EE
:101D54007A02031CAE2EAF2EB62E7808FA0279084A
:101D6400031CFB03FB02211401300310F90CF80CD3
:101D7400FF3E031DB72E0130A302031DC22EC32E46
:101D84009E2E2208F9002108F8000800031083128F
:101D940003135C0D5D0DDE005E08E4006408031DA2
:101DA400D42ED52EDE2E0030DD000030DC000030D5
:101DB400DB000030DA00432F5A08DE005B08DF0046
:101DC4005C08E0005D08E1001F300310E10CE00C4A
:101DD400DF0CDE0CFF3E031DE72E5E08E200620806
:101DE400E300DC17FF30DA05FF30DB05FF30DC05EC
:101DF4000030DD059630E402E41F012F022F1C2F72
:101E04006408803A973E0318082F092F0A2FD52E0D
:101E140001300310DD0CDC0CDB0CDA0CFF3E031D7F
:101E24000B2F0130DE005E08E407031D1A2F1B2F61
:101E34000A2F332F20306402031C212F222F2E2F30
:101E4400D52E0130DE000310DA0DDB0DDC0DDD0DC7
:101E5400DE0B252F0130E4026408031D322F332FDB
:101E6400232F63080319372F382F432FDA09DB098F
:101E7400DC09DD09DA0A0319DB0A0319DC0A031990
:101E8400DD0A080083120313A000200803194B2F56
:101E94004C2F602FF51F4F2F502F602F7209A20077
:101EA4007309A3007409A4007509A500A20A031903
:101EB400A30A0319A40A0319A50A682F7508A50023
:101EC4007408A4007308A3007208A20075087404BF
:101ED40073047204031D6F2F702F792F0030F500E7
:101EE4000030F4000030F3000030F200FF2F963091
:101EF400F6007608A1008B2F0130F6007608A107C2
:101F040001300310A50CA40CA30CA20CFF3E031D6E
:101F1400832FFE302505031D902F912F7E2FAD2F8B
:101F24000130F6007608A1070130A207003003183B
:101F34000130A307003003180130A4070030031850
:101F44000130A50701300310A50CA40CA30CA20CAE
:101F5400FF3E031DA52FFF302505031DB22FB32F10
:101F6400922FBF2F0130A1020130F6000310A20D01
:101F7400A30DA40DA50DF60BB82FA41BC22FC32FC0
:101F8400C92F023021020318C82FC92FB42F2118DA
:101F9400CC2FCD2FD52FFF30A205FF30A3057F30E6
:101FA400A405FF30A5050310A10C2108F600F701D4
:101FB400F801F90118300310F60DF70DF80DF90DBD
:101FC400FF3E031DDD2F7608A2047708A3047808DA
:101FD400A4047908A50420080319F12FF22FF72F80
:101FE400F51FF52FF62FF72FA5172508F500240860
:0C1FF400F4002308F3002208F2000800AB
:04400E00F43FFF3F3D
:00000001FF
