:020000040000FA
:060000000A128A110C280F
:10000800FE00030EF0000A08F1000A128A11BD284A
:100018000A128A110F28F701F80183010A128A11BE
:1000280015280A128A1150200A128A11C730F600C0
:100038001D28F60B1C2820282128FF300A128A11B7
:10004800C4200A128A113A280A128A11AD200A120B
:100058008A11F6007608F80046280A128A11AD209F
:100068000A128A11F6007608F70046280030831233
:10007800031309180130003A03192828013A031913
:1000880031284628780883120313860077088800E9
:100098001A280A128A110C28831603178801890165
:1000A800831603138501860190308700880101308B
:1000B80089008B170B170C17831203131F083F397E
:1000C80040389F00C3309F051F140C130A128A1171
:1000D80080200A128A11F201F301F40120300A1279
:1000E8008A1197200A128A11831203138501860147
:1000F80087018801890108008316031398161812CE
:1001080083120313981783160313181583160317FE
:100118008711831603139A011930990087178312E0
:10012800031318160800F500831603138712751DAC
:100138009E289F28A328740894008715A72872086A
:1001480074049400871175087304831203139400D0
:1001580008000A128A11B6200A128A1183120313A0
:100168001308080083160313141CBB28BC28B628E0
:10017800080071088A00700E8300FE0E7E0E0900CA
:0C018800F20072088312031393000800B9
:04400E00F43FFF3F3D
:00000001FF
