:020000040000FA
:060000000A128A110C280F
:10000800FE00030EF0000A08F1000A128A11792A8C
:100018000A128A110F2883120313B00183010A12EE
:100028008A1116280A128A11BC210A128A11013073
:100038000A128A11E7210A128A110A128A117022F9
:100048000A128A110030F200F3000A128A115D22A6
:100058000A128A11831203133008AD00AE012D086D
:10006800F2002E08F3000A128A115D220A128A1180
:100078000A128A1167220A128A11023083120313A4
:10008800AF000430AE00B930AD00AD0B4928AE0B5F
:100098004928AF0B49285028013083120313AD00BB
:1000A8002D08B007063083120313AF001330AE00DB
:1000B800AD30AD00AD0B5E28AE0B5E28AF0B5E28F1
:1000C8000A128A1170220A128A110130F2000030D5
:1000D800F3000A128A115D220A128A110030F20016
:1000E800F3000A128A118E210A128A1172088312E9
:1000F800031386000A128A1167220A128A11023033
:1001080083120313AF000430AE00B930AD00AD0B5D
:100118008B28AE0B8B28AF0B8B28922821280A122C
:100128008A110C28003083120313A3000030A200A8
:100138000030A1000030A000750874047304720434
:100148000319A728A828F528A401A40AB82801306B
:10015800FA000310F20DF30DF40DF50DFA0BAD28AE
:100168000130FA007A08A407F51FBB28BC28AB2881
:100178000130FA000310A00DA10DA20DA30DFA0B7A
:10018800BE2875087902031DD32874087802031D58
:10019800D32873087702031DD32872087602031C3C
:1001A800D628D728E6287208F6027308031C730FAE
:1001B800F7027408031C740FF8027508031C750F06
:1001C800F902201401300310F50CF40CF30CF20CB6
:1001D800FF3E031DE7280130A402031DF428F5287B
:1001E800BC282308F5002208F4002108F3002008A1
:1001F800F20008008312031388011A30F600F83061
:10020800F500F50B0529F60B0529000030300A1218
:100218008A113C220A128A110730F6007D30F50057
:10022800F50B1429F60B142930300A128A113C22D6
:100238000A128A113530F500F50B202930300A12E0
:100248008A113C220A128A1138300A128A113C2279
:100258000A128A1110300A128A113C220A128A11D3
:1002680001300A128A113C220A128A1106300A1237
:100278008A113C220A128A1110300A128A113C2271
:100288000A128A110C300A128A113C220A128A11A7
:100298008230F600DD30F500F50B5029F60B5029B9
:1002A800552908002830831203139400831603137A
:1002B8009101831203132508A9002608AA0027081C
:1002C800AB002808AC0002300310A90DAA0DAB0D35
:1002D800AC0DFF3E031D68292C08F5002B08F4001F
:1002E8002A08F3002908F2000030F9003D30F80030
:1002F8000930F7000030F6000A128A1196200A1217
:100308008A117208FF3E8316031393009401871520
:10031800071608000A128A1150220A128A11831637
:10032800031391150A128A1150220A128A11831294
:1003380003131308F400F5017408F6007508F700B4
:100348000A128A1150220A128A1172037304031DB9
:10035800AE29AF29B329831603139112B629831640
:100368000313911611167708F3007608F2000800B7
:1003780083160317880189018316031385018601F3
:1003880090308700880189018B170B170C170A1208
:100398008A11FE200A128A11003083120313A80062
:1003A8000130A7008630A600A030A5000A128A11E5
:1003B80056210A128A1183120313850186018701C7
:1003C800880189010800F700F501F601FE29750882
:1003D800770784000A128A110C220A128A110A125B
:1003E8008A1124220A128A110130F5070318F60A25
:1003F8000030F6077508770784000A128A110C2264
:100408000A128A11003A031D0A2A0B2AEB2908004E
:1004180002308A000408840A820700342034203419
:10042800533431342034203420342034533432349B
:1004380020342034203420345334333420340034EE
:10044800F4007408831203138800091489142130F6
:10045800F200F20B2D2A8312031389100D30F300DA
:10046800FB30F200F20B362AF30B362A3B2A08003F
:10047800F4008312031309107408880089140630E5
:10048800F3003030F200F20B472AF30B472A000042
:100498008312031389100800831603131419552AAD
:1004A800562A502A11081F39031D5B2A5C2A502A34
:1004B80008000A128A1150220A128A11720883123D
:1004C8000313930008000A128A1150220A128A1193
:1004D80083160313111508000A128A1150220A12F2
:1004E8008A11831603131114080071088A00700E0C
:0804F8008300FE0E7E0E0900D8
:04400E00F43FFF3F3D
:00000001FF
