:020000040000FA
:060000000A128A110C280F
:10000800FE00030EF0000A08F1000A128A11F62C0D
:100018000A128A110F2883120313C501C601C701EA
:10002800C801C901CA01CB01CC0183010A128A1196
:100038001D280A128A11FB230A128A1101300A129A
:100048008A114B240A128A110A128A11ED240A1203
:100058008A110130F2000030F3000A128A11DA2402
:100068000A128A110030F200F3000A128A11CD2315
:100078000A128A11730883120313C8007208C70092
:100088000A128A11E4240A128A1102308312031315
:10009800B5000430B400B930B300B30B5128B40B29
:1000A8005128B50B512858280A128A11ED240A1232
:1000B8008A110330F2000030F3000A128A11DA24A0
:1000C8000A128A110030F200F3000A128A11CD23B5
:1000D8000A128A11720883120313B3003308CC0082
:1000E8000A128A11E4240A128A11023083120313B5
:1000F800B5000430B400B930B300B30B8128B40B99
:100108008128B50B812888280A128A11ED240A1241
:100118008A118030F2000030F3000A128A11DA24C2
:100128000A128A11F330F2000030F3000A128A1121
:10013800DA240A128A110A128A11E4240A128A118C
:10014800023083120313B5000430B400B930B30091
:10015800B30BAC28B40BAC28B50BAC28B3280A12E7
:100168008A11ED240A128A118130F2000030F3005E
:100178000A128A11DA240A128A110030F200F300F6
:100188000A128A11CD230A128A11720883120313E4
:10019800B3003308CA000A128A11E4240A128A1129
:1001A800023083120313B5000430B400B930B30031
:1001B800B30BDC28B40BDC28B50BDC28E32883124E
:1001C800031348084606031DEB2847084506031D88
:1001D800EE28EF28FB284B084C06031DF428F528C9
:1001E800FB2849084A060319FA28FB282828480842
:1001F800A5004708A4003A30B3003308A6004330EE
:10020800B4003408A7004030B5003508A8003D30D8
:10021800B6003608A9000A128A11C2210A128A11E8
:10022800831203134C08B300B4013308A400340844
:10023800A5003B30B5003508A6003930B6003608B1
:10024800A7004130B7003708A8003E30B80038088A
:10025800A9000A128A11C2210A128A1183120313F1
:100268004A08B300B4013308A4003408A5003C30A0
:10027800B5003508A6004430B6003608A70042305D
:10028800B7003708A8003F30B8003808A9000A129C
:100298008A11C2210A128A11831203134808C60060
:1002A8004708C5004C08B3003308CB004A08B30020
:1002B8003308C900C0300A128A11B9240A128A11F7
:1002C80015300A128A114B240A128A118312031359
:1002D8004308303E0A128A118C240A128A118312AA
:1002E80003134008303E0A128A118C240A128A111C
:1002F800831203133D08303E0A128A118C240A1215
:100308008A1113300A128A114B240A128A11831295
:1003180003134108303E0A128A118C240A128A11EA
:10032800831203133E08303E0A128A118C240A12E3
:100338008A1113300A128A114B240A128A11831265
:1003480003134408303E0A128A118C240A128A11B7
:10035800831203134208303E0A128A118C240A12AF
:100368008A11831203133F08303E0A128A118C2423
:100378000A128A1128280A128A110C28E830F80073
:100388000330F900831203132508FB002408FA0040
:100398000A128A114F230A128A117808831203134A
:1003A800AA00260884002A08831380006430F80015
:1003B8000030F900260884000008AA00AB012A08CA
:1003C800F2002B08F3001830F400FC30F5000A1294
:1003D8008A1126240A128A11831203132408720729
:1003E800FA0025080318250A7307FB000A128A1168
:1003F8004F230A128A11780883120313AC002708C6
:1004080084002C08831380000A30F8000030F900BB
:10041800260884000008AA00AB012A08F2002B086D
:10042800F3001830F400FC30F5000A128A11262473
:100438000A128A11720883120313AC007308AD0004
:100448002708840083130008AE00AF012E08F200CD
:100458002F08F3009C30F400FF30F5000A128A11CF
:1004680026240A128A117208831203132C07B0007B
:1004780073080318730A2D07B10024083007FA001F
:1004880025080318250A3107FB000A128A114F2391
:100498000A128A11780883120313B200280884000C
:1004A8003208831380001830AA002A08F2002608B0
:1004B800840000080A128A11A4240A128A118312DD
:1004C8000313AB009C30AC002C08F2002708840012
:1004D800831300080A128A11A4240A128A118312AB
:1004E8000313AD00F630AE002E08F2002808840091
:1004F800831300080A128A11A4240A128A1183128B
:1005080003132D072B072407AF00290884002F08A1
:10051800831380000800003083120313A300003007
:10052800A2000030A1000030A00075087404730414
:1005380072040319A02AA12AEE2AA401A40AB12A46
:100548000130FA000310F20DF30DF40DF50DFA0B5E
:10055800A62A0130FA007A08A407F51FB42AB52A9A
:10056800A42A0130FA000310A00DA10DA20DA30DBD
:10057800FA0BB72A75087902031DCC2A7408780289
:10058800031DCC2A73087702031DCC2A7208760251
:10059800031CCF2AD02ADF2A7208F6027308031C2C
:1005A800730FF7027408031C740FF8027508031C14
:1005B800750FF902201401300310F50CF40CF30C3C
:1005C800F20CFF3E031DE02A0130A402031DED2AB0
:1005D800EE2AB52A2308F5002208F4002108F300C2
:1005E8002008F20008008312031388011A30F6006D
:1005F800F830F500F50BFE2AF60BFE2A0000303025
:100608000A128A11B9240A128A110730F6007D30BD
:10061800F500F50B0D2BF60B0D2B30300A128A1155
:10062800B9240A128A113530F500F50B192B303030
:100638000A128A11B9240A128A1138300A128A1148
:10064800B9240A128A1110300A128A11B9240A121E
:100658008A1101300A128A11B9240A128A11063045
:100668000A128A11B9240A128A1110300A128A1140
:10067800B9240A128A110C300A128A11B9240A12F2
:100688008A118230F600DD30F500F50B492BF60BA8
:10069800492B4E2B080083120313A101A2017808ED
:1006A80079040319582B592B902BA301A30A672B04
:1006B80001300310F80DF90DFF3E031D5D2B0130CD
:1006C800A0002008A307F91F6A2B6B2B5C2B0130B5
:1006D8000310A10DA20DFF3E031D6C2B79087B02B0
:1006E800031D782B78087A02031C7B2B7C2B832B29
:1006F8007808FA027908031CFB03FB022114013075
:100708000310F90CF80CFF3E031D842B0130A302E3
:10071800031D8F2B902B6B2B2208F9002108F80062
:1007280008002830831203139400831603139101E1
:10073800831203132508A9002608AA002708AB007E
:100748002808AC0002300310A90DAA0DAB0DAC0DA2
:10075800FF3E031DA72B2C08F5002B08F4002A08E0
:10076800F3002908F2000030F9003D30F8000930A4
:10077800F7000030F6000A128A118F220A128A1135
:100788007208FF3E8316031393009401871507161A
:1007980008000A128A11CD240A128A11831603133B
:1007A80091150A128A11CD240A128A118312031391
:1007B8001308F400F5017408F6007508F7000A122A
:1007C8008A11CD240A128A1172037304031DED2BBA
:1007D800EE2BF22B831603139112F52B83160313BA
:1007E800911611167708F3007608F20008008316B0
:1007F8000317880189018316031385018601903048
:100808008700880189018B170B170C170A128A11A8
:10081800F7220A128A11003083120313A80001304C
:10082800A7008630A600A030A5000A128A119523D9
:100838000A128A1183120313850186018701880130
:1008480089010800F601F701721C2B2C2C2C322C84
:100858007408F6070318F70A7508F707013003103C
:10086800F40DF50DFF3E031D332C01300310F30C7E
:10087800F20CFF3E031D3A2C72087304031D452C2D
:10088800462C282C7708F3007608F2000800F700B9
:10089800F501F601622C7508770784000A128A119F
:1008A80070240A128A110A128A118C240A128A11D7
:1008B8000130F5070318F60A0030F60775087707C0
:1008C80084000A128A1170240A128A11003A031D40
:1008D8006E2C6F2C4F2C080004308A000408840A00
:1008E8008207003420342034533431342034203407
:1008F800203420345334323420342034203420340B
:100908005334333420340034203420342034003439
:10091800F400740883120313880009148914213021
:10092800F200F20B952C8312031389100D30F3009B
:10093800FB30F200F20B9E2CF30B9E2CA32C08002C
:10094800F500F401751CA92CAA2CAE2C7208F30032
:100958007308F4070310F20D0310F50C7508031D56
:10096800B62CB72CA62C74080800F40083120313C5
:1009780009107408880089140630F3003030F2003A
:10098800F20BC42CF30BC42C000083120313891040
:100998000800831603131419D22CD32CCD2C11085C
:1009A8001F39031DD82CD92CCD2C08000A128A1106
:1009B800CD240A128A1172088312031393000800C7
:1009C8000A128A11CD240A128A11831603131115EB
:1009D80008000A128A11CD240A128A1183160313F9
:1009E8001114080071088A00700E8300FE0E7E0E36
:0209F8000900F4
:04400E00F42FFF3F4D
:00000001FF
