:020000040000FA
:060000000A128A110C280F
:10000800FE00030EF6000A08F7000A128A11642897
:100018000A128A110F28F001F101F201F301F4012B
:1000280083010A128A113F28831603178801890160
:10003800831603138501033086008030870088010A
:100048008901811303309500033096008B178B15B7
:100058000B100A128A1188200A128A1183120313BC
:1000680085018601870188018901F401FF30F800C4
:100078007808FA0008000A128A1118200A128A1150
:1000880074088312031385007A08740603194D282F
:100098004E28582874080A128A119F200A128A11B9
:1000A8007408F9007908FA00831203138C1E5D287E
:1000B8005E2844281A08880044280A128A110C2845
:1000C8000B1C6728682881288312031306186D28DB
:1000D8006E287628861C7128722876280130F5004B
:1000E8007508F407061C79287A28802886187D2840
:1000F8007E2880280130F4020B1077088A00760EDB
:100108008300FE0E7E0E09008316031387179816C8
:1001180018128312031398178316031318158316DE
:1001280003178711831603139A0119309900831254
:10013800031318160800F8007808831203139900AF
:0E01480083160313981CA928AA28A4280800CF
:04400E00D420FF3F7C
:00000001FF
