:020000040000FA
:060000000A128A110C280F
:10000800FE00030EF1000A08F2000A128A11DF2925
:100018000A128A110F2883120313BC01BD01BE0105
:10002800BF01C00183010A128A11E728E830831250
:100038000313A0000330A1002808A3002708A2008A
:100048000A128A114D210A128A11831203132008F9
:10005800AD00290884002D08831380006430A000B7
:100068000030A100290884000008AD00AE012D0869
:10007800F3002E08F4001830F500FC30F6000A12E0
:100088008A11BA210A128A118312031327087307E7
:10009800A20028080318280A7407A3000A128A1164
:1000A8004D210A128A11831203132008AF002A086F
:1000B80084002F08831380000A30A0000030A100BC
:1000C800290884000008AD00AE012D08F3002E08B1
:1000D800F4001830F500FC30F6000A128A11BA2133
:1000E8000A128A11730883120313AF007408B00050
:1000F8002A08840083130008B100B2013108F30014
:100108003208F4009C30F500FF30F6000A128A111C
:10011800BA210A128A117308831203132F07B30036
:1001280074080318740A3007B40027083307A200BC
:1001380028080318280A3407A3000A128A114D2137
:100148000A128A11831203132008B5002B088400B1
:100158003508831380001830AD002D08F3002908F6
:10016800840000080A128A113D220A128A11831299
:100178000313AE009C30AF002F08F3002A08840058
:10018800831300080A128A113D220A128A11831267
:100198000313B000F630B1003108F3002B088400D7
:1001A800831300080A128A113D220A128A11831247
:1001B800031330072E072707B2002C0884003208E3
:1001C8008313800008000A128A1193210A128A11E7
:1001D800831203133C08880041083C060319F528DC
:1001E800F62841293C08B600B7013608A7003708A9
:1001F800A8004030B8003808A9003F30B9003908D5
:10020800AA003E30BA003A08AB003D30BB003B08BC
:10021800AC000A128A111A200A128A1183120313D7
:100228003C08B6003608C1003F0803191C291D29DF
:1002380024293F08303E0A128A1152220A128A11D2
:10024800831203133E0803192A292B2932293E0851
:10025800303E0A128A1152220A128A11831203139B
:100268003D08303E0A128A1152220A128A110130C0
:100278000A128A1103220A128A11831203138C1E8E
:1002880046294729EC281A088500EC280A128A1101
:100298000C2883120313A401A501200821040319C3
:1002A800562957298E29A601A60A65290130031067
:1002B800A00DA10DFF3E031D5B290130F90079084F
:1002C800A607A11F682969295A2901300310A40D1E
:1002D800A50DFF3E031D6A2921082302031D762967
:1002E80020082202031C79297A2981292008A202E0
:1002F8002108031CA303A302241401300310A10C3A
:10030800A00CFF3E031D82290130A602031D8D2982
:100318008E2969292508A1002408A0000800831651
:1003280003178801890183160313850103308600AA
:1003380080308700880189018113033095000330DC
:1003480096008B178B150B100A128A1126220A1297
:100358008A118312031385018601870188018901A7
:10036800BC01FF30F3007308C1000800F701F80171
:10037800731CBF29C029C6297508F7070318F80A8E
:100388007608F80701300310F50DF60DFF3E031D42
:10039800C72901300310F40CF30CFF3E031DCE29CE
:1003A80073087404031DD929DA29BC297808F400D4
:1003B8007708F30008000B1CE229E329FC298312C3
:1003C80003130618E829E929F129861CEC29ED29E7
:1003D800F1290130F0007008BC07061CF429F52942
:1003E800FB298618F829F929FB290130BC020B10D2
:1003F80072088A00710E8300FE0E7E0E0900F4005A
:10040800192A740884000A128A115E220A128A11B3
:1004180083120313990083160313981C142A152AB0
:100428000F2A0130F3007308F407740884000A12D5
:100438008A115E220A128A11003A031D242A252AEB
:10044800052A0800831603138717981618128312B3
:1004580003139817831603131815831603178711A8
:10046800831603139A01193099008312031318167F
:100478000800F600F501761C422A432A472A730829
:10048800F4007408F5070310F30D0310F60C760852
:10049800031D4F2A502A3F2A75080800F3007308E5
:1004A80083120313990083160313981C5C2A5D2A90
:1004B800572A080002308A000408840A8207003498
:0404C8000D340034BB
:04400E00F43FFF3F3D
:00000001FF
