:020000040000FA
:060000000A128A110C280F
:10000800FE00030EF1000A08F2000A128A11B02C51
:100018000A128A110F28F801F901FA018312031351
:10002800B501B601B701B801B901BA01BB01BC01FC
:10003800BD01BE01BF01C001C101C201C3018301ED
:100048000A128A1127280A128A115B230A128A11B6
:1000580001300A128A1144240A128A11C0300A1285
:100068008A119C240A128A1121300A128A11442406
:100078000A128A11C4300A128A119C240A128A119F
:1000880013300A128A1144240A128A110A128A1198
:10009800F0240A128A117230F3000030F4000A12B8
:1000A8008A11DD240A128A118030F3000030F4002E
:1000B8000A128A11DD240A128A110330F300003073
:1000C800F4000A128A11DD240A128A110A128A110E
:1000D800E7240A128A11033083120313B3000C3089
:1000E800B2005B30B100B10B7728B20B7728B30BA5
:1000F80077287E280A128A11F0240A128A1172308F
:10010800F3000030F4000A128A11DD240A128A1161
:10011800AC30F3000030F4000A128A11DD240A1210
:100128008A110A128A11E7240A128A110A128A11FC
:10013800F0240A128A117330F3000030F4000A1216
:100148008A11DD240A128A110030F300F4000A1221
:100158008A11EA230A128A11730883120313B10061
:100168003108C3000A128A11E7240A128A110A12F6
:100178008A11F0240A128A117230F3000030F40058
:100188000A128A11DD240A128A11AC30F3000030F9
:10019800F4000A128A11DD240A128A110A128A113D
:1001A800E7240A128A110A128A11F0240A128A1103
:1001B8007330F3000030F4000A128A11DD240A12A9
:1001C8008A110030F300F4000A128A11EA230A1295
:1001D8008A11730883120313B1003108C2000A128E
:1001E8008A11E7240A128A11023083120313B3001A
:1001F8000430B200B930B100B10B0029B20B0029AC
:10020800B30B00290729831203134308B100B20175
:100218004208B300B4013308B400B3013108330411
:10022800B50032083404B6000A128A11F0240A1202
:100238008A110130F3000030F4000A128A11DD241B
:100248000A128A110030F300F4000A128A11EA2314
:100258000A128A11730883120313B1003108BF0010
:100268000A128A11E7240A128A1102308312031330
:10027800B3000430B200B930B100B10B4129B20B60
:100288004129B30B41294829831203133F08013937
:10029800B1003108BE003F080239B1003108BC0086
:1002A8000A128A11F0240A128A110330F30000306E
:1002B800F4000A128A11DD240A128A110030F300B0
:1002C800F4000A128A11EA230A128A1173088312A7
:1002D8000313B1003108BA000A128A11E7240A127E
:1002E8008A11023083120313B3000430B200B9300C
:1002F800B100B10B7D29B20B7D29B30B7D2984296F
:100308005B300A128A11D1240A128A11831203134C
:100318003D08303E0A128A11D1240A128A112C3063
:100328000A128A11D1240A128A11831203133B0874
:10033800303E0A128A11D1240A128A112C300A126C
:100348008A11D1240A128A11831203133508303E08
:100358000A128A11D1240A128A112C300A128A111F
:10036800D1240A128A115D300A128A11D1240A1284
:100378008A11831203133E080319C329C429DB29F0
:100388003D08031DC829C929DB2980309500C030E4
:100398000A128A119C240A128A111D300A128A1123
:1003A80044240A128A1183120313BD01BD0A3C08B2
:1003B8000319DF29E029052A3B08031DE429E5295B
:1003C800052AC5300A128A119C240A128A1118308B
:1003D8000A128A1144240A128A118312031308107C
:1003E8008814C33083120313B200CC30B100B10BB0
:1003F800FB29B20BFB290000831203138810BB01F1
:10040800BB0A3A080319092A0A2A172A3D080319B8
:100418000E2A0F2A172A3B080319132A142A172A07
:100428008E018F01101404303902031C1C2A1D2A66
:10043800212AB9011010B801B80A3803031D252A6A
:10044800262A6C2A3B03031D2A2A2B2A6C2A3D03E1
:10045800031D2F2A302A6C2AB801BB01BD01C53003
:100468000A128A119C240A128A1113300A128A115C
:1004780044240A128A118312031308148810C33003
:1004880083120313B200CC30B100B10B492AB20B6E
:10049800492A0000831203130810C3308312031380
:1004A800B200CC30B100B10B572AB20B572A00006A
:1004B8002030831203139500C0300A128A119C243D
:1004C8000A128A1121300A128A1144240A128A1146
:1004D8000030831203133602C83003193502031C97
:1004E800762A772A782A882ACC300A128A119C24FC
:1004F8000A128A1121300A128A1144240A128A1116
:100508008312031308154A28CC300A128A119C2436
:100518000A128A111D300A128A1144240A128A11F9
:100528008312031308114A280A128A110C28003072
:1005380083120313AB000030AA000030A90000307A
:10054800A80023082204210420040319AC2AAD2A98
:10055800FA2AAC01AC0ABD2A0130F3000310A00D41
:10056800A10DA20DA30DF30BB22A0130F3007308FD
:10057800AC07A31FC02AC12AB02A0130F300031018
:10058800A80DA90DAA0DAB0DF30BC32A230827024A
:10059800031DD82A22082602031DD82A210825026D
:1005A800031DD82A20082402031CDB2ADC2AEB2A94
:1005B8002008A4022108031C210FA5022208031CFD
:1005C800220FA6022308031C230FA70228140130B8
:1005D8000310A30CA20CA10CA00CFF3E031DEC2AD7
:1005E8000130AC02031DF92AFA2AC12A2B08A300FC
:1005F8002A08A2002908A1002808A00008008312E0
:10060800031385011A30F700F830F600F60B0A2BB1
:10061800F70B0A2B000030300A128A119C240A12A8
:100628008A110730F7007D30F600F60B192BF70B0F
:10063800192B30300A128A119C240A128A1135307B
:10064800F600F60B252B30300A128A119C240A1268
:100658008A1138300A128A119C240A128A11103021
:100668000A128A119C240A128A1101300A128A116C
:100678009C240A128A1106300A128A119C240A1232
:100688008A1110300A128A119C240A128A110C301D
:100698000A128A119C240A128A118230F700DD306E
:1006A800F600F60B552BF70B552B5A2B0800831623
:1006B8000317880189018316031385018601903089
:1006C8008700880189018B170B170C1483120313F9
:1006D8000C10303090040A128A1103230A128A116E
:1006E8000A128A1185240A128A1100308312031310
:1006F800B0000630AF001A30AE008030AD000A12EC
:100708008A11B0230A128A11831603130715F930C8
:1007180092008312031397151715203095008C103B
:100728000330920012158C1C9A2B9B2B972B831647
:1007380003130711831203138501860187018801BA
:100748008901C201C301B501B601BC01BB01BE01EB
:10075800BD01BA01B80108002830831203139400C0
:10076800831603139101831203132D08F4002E0836
:10077800F5002F08F6003008F70002300310F40DDA
:10078800F50DF60DF70DFF3E031DC22B7708A300EC
:100798007608A2007508A1007408A0000030A70020
:1007A8003D30A6000930A5000030A4000A128A11C5
:1007B8009B220A128A11831203132008FF3E831614
:1007C8000313930094018715071608000A128A116B
:1007D800C4240A128A118316031391150A128A1166
:1007E800C4240A128A11831203131308F500F601B0
:1007F8007508A0007608A1000A128A11C4240A12FA
:100808008A1173037404031D0A2C0B2C0F2C8316F6
:1008180003139112122C83160313911611168312C7
:1008280003132108F4002008F300080004308A00AC
:100838000408840A8207003420344C346F3463344B
:100848006B34203444346F346F34723420344C3475
:1008580069346734683474347334003420344E3463
:100868004F34203400344F34503445344E3400343F
:100878004F3446344634003420344F344E34003438
:1008880083120313A200A001A1015F2C20082207F4
:1008980084000A128A111A240A128A110A128A1169
:1008A8006D240A128A11013083120313A00703185A
:1008B800A10A0030A1072008220784000A128A1121
:1008C8001A240A128A11003A031D6B2C6C2C4A2C2C
:1008D8000800F500750883120313850009148914AC
:1008E8002130F300F30B762C8312031389100D309B
:1008F800F400FB30F300F30B7F2CF40B7F2C842CDB
:100908000800831603138717981618128312031307
:100918009817831603131815831603178711831660
:1009280003139A011930990083120313181608004B
:10093800F500831203130910750885008914063021
:10094800F4003030F300F30BA72CF40BA72C0000B5
:100958008312031389100800831203130C1CB52C8F
:10096800B62CBD2C8E018F010130F0007008B9073C
:100978000C1072088A00710E8300FE0E7E0E0900AC
:10098800831603131419C92CCA2CC42C11081F3937
:10099800031DCF2CD02CC42C0800F300730883123D
:1009A8000313990083160313981CDB2CDC2CD62C1C
:1009B80008000A128A11C4240A128A1173088312C1
:1009C8000313930008000A128A11C4240A128A1118
:1009D80083160313111508000A128A11C4240A1277
:0A09E8008A1183160313111408008E
:04400E00D420FF3F7C
:00000001FF
