:020000040000FA
:060000000A128A110C280F
:10000800FE00030EF0000A08F1000A128A116F2B95
:100018000A128A110F28F801F901FA018312031351
:10002800B301B401B501B601B701B801B901BA010C
:1000380083010A128A1120280A128A1103220A123D
:100048008A1101300A128A11DE220A128A11C0307E
:100058000A128A1132230A128A1121300A128A11CD
:10006800DE220A128A11C4300A128A1132230A12B5
:100078008A1113300A128A11DE220A128A110A1210
:100088008A1166230A128A110130F2000030F30047
:100098000A128A1153230A128A110030F200F3005F
:1000A8000A128A1186220A128A117208831203130D
:1000B800B0003008B7000A128A115D230A128A11AB
:1000C800023083120313B2000430B100B930B0001B
:1000D800B00B6C28B10B6C28B20B6C2873280A1271
:1000E8008A1166230A128A110330F2000030F300E5
:1000F8000A128A1153230A128A110030F200F300FF
:100108000A128A1186220A128A11720883120313AC
:10011800B0003008B4000A128A115D230A128A114D
:10012800023083120313B2000430B100B930B000BA
:10013800B00B9C28B10B9C28B20B9C28A3288312D7
:10014800031337080139B0003008B6003708023900
:10015800B0003008B5003408860036080319B52801
:10016800B628C42880309500C0300A128A1132237C
:100178000A128A111D300A128A11DE220A128A1105
:100188008312031335080319CA28CB28F128360827
:100198000319CF28D028F128C4300A128A11322333
:1001A8000A128A1118300A128A11DE220A128A11DA
:1001B8008312031308108814033083120313B20048
:1001C8008A30B1005530B000B00BE828B10BE828F0
:1001D800B20BE82883120313881034080319F52892
:1001E800F628F828B301B30A3303031DFC28FD28B9
:1001F80043283408031D012902294328B301C430C8
:100208000A128A1132230A128A1113300A128A1129
:10021800DE220A128A11831203130814881002308E
:1002280083120313B2000430B100B930B000B00B30
:100238001B29B10B1B29B20B1B292229831203137B
:100248000810823083120313B100DD30B000B00B08
:100258002B29B10B2B292030831203139500C030B2
:100268000A128A1132230A128A1121300A128A11BB
:10027800DE220A128A1143280A128A110C28003039
:10028800F6000030F5000030F4000030F30083126F
:10029800031323082204210420040319542955298F
:1002A800A229F701F70A65290130F2000310A00D11
:1002B800A10DA20DA30DF20B5A290130F20072080C
:1002C800F707A31F6829692958290130F20003108C
:1002D800F30DF40DF50DF60DF20B6B29230827022B
:1002E800031D802922082602031D802921082502D2
:1002F800031D802920082402031C832984299329AB
:100308002008A4022108031C210FA5022208031CAF
:10031800220FA6022308031C230FA702731401301F
:100328000310A30CA20CA10CA00CFF3E031D9429E2
:100338000130F702031DA129A22969297608A30023
:100348007508A2007408A1007308A00008008312B1
:10035800031385011A30F600F830F500F50BB229C1
:10036800F60BB229000030300A128A1132230A1221
:100378008A110730F6007D30F500F50BC129F60B20
:10038800C12930300A128A1132230A128A113530F3
:10039800F500F50BCD2930300A128A1132230A12E2
:1003A8008A1138300A128A1132230A128A1110303F
:1003B8000A128A1132230A128A1101300A128A118A
:1003C80032230A128A1106300A128A1132230A12BB
:1003D8008A1110300A128A1132230A128A110C303B
:1003E8000A128A1132230A128A118230F600DD308D
:1003F800F500F50BFD29F60BFD29022A08008316E6
:10040800031788018901831603138501860190303B
:100418008700880189018B170B170A128A11AB21F3
:100428000A128A110A128A111B230A128A11003031
:1004380083120313AB000130AA008630A900A03054
:10044800A8000A128A114C220A128A118316031371
:100458000715F930920083120313971517152030EA
:1004680095008C100330920012158C1C3C2A3D2AF2
:10047800392A831603130711831203138501860192
:10048800870188018901BA01B501B601B4010800E4
:1004980028308312031394008316031391018312E7
:1004A80003132808AC002908AD002A08AE002B0861
:1004B800AF0002300310AC0DAD0DAE0DAF0DFF3E19
:1004C800031D5E2A2F08A3002E08A2002D08A100F4
:1004D8002C08A0000030A7003D30A6000930A50078
:1004E8000030A4000A128A1143210A128A118312C9
:1004F80003132008FF3E8316031393009401871506
:10050800071608000A128A1146230A128A1183164E
:10051800031391150A128A1146230A128A118312AB
:1005280003131308F400F5017408F6007508F700C2
:100538000A128A1146230A128A1172037304031DD0
:10054800A62AA72AAB2A831603139112AE2A83166A
:100558000313911611167708F3007608F2000800C5
:1005680002308A000408840A8207003420344C349C
:100578006F3463346B34203444346F346F347234E2
:1005880020344C3469346734683474347334003438
:1005980020344E344F34203400344F3450344534F2
:1005A8004E3400344F3446344634003420344F340B
:1005B8004E340034F700F501F601F52A750877077F
:1005C80084000A128A11B4220A128A110A128A11A4
:1005D80003230A128A110130F5070318F60A0030BE
:1005E800F6077508770784000A128A11B4220A12DE
:1005F8008A11003A031D012B022BE22A0800F4009D
:100608007408831203138500091489142130F20039
:10061800F20B0C2B8312031389100D30F300FB30FF
:10062800F200F20B152BF30B152B1A2B080083166F
:100638000313871798161812831203139817831633
:1006480003131815831603178711831603139A01CA
:10065800193099008312031318160800F400831246
:10066800031309107408850089140630F30030302C
:10067800F200F20B3D2BF30B3D2B0000831203130A
:10068800891008008316031314194B2B4C2B462B87
:1006980011081F39031D512B522B462B08000A1233
:1006A8008A1146230A128A117208831203139300CF
:1006B80008000A128A1146230A128A1183160313A4
:1006C800111508000A128A1146230A128A11831684
:1006D80003131114080071088A00700E8300FE0EBF
:0406E8007E0E090079
:04400E00D420FF3F7C
:00000001FF
