:020000040000FA
:060000000A128A110C280F
:10000800FE00030EF1000A08F2000A128A11E72C1A
:100018000A128A110F2883120313B201B301B40123
:10002800B501B601B701B801B901BA01BB01BC01FC
:10003800BD01BE01BF0183010A128A1123280A12D9
:100048008A1198230A128A1101300A128A117F2410
:100058000A128A11C0300A128A11D3240A128A118C
:1000680022300A128A117F240A128A11C4300A1215
:100078008A11D3240A128A1113300A128A117F2492
:100088000A128A11CC300A128A11D3240A128A1150
:1000980019300A128A117F240A128A110A128A1147
:1000A80027250A128A117230F3000030F4000A1270
:1000B8008A1114250A128A118030F3000030F400E6
:1000C8000A128A1114250A128A110330F30000302B
:1000D800F4000A128A1114250A128A110A128A11C6
:1000E8001E250A128A11033083120313B0000C3044
:1000F800AF005B30AE00AE0B7F28AF0B7F28B00B94
:100108007F2886280A128A1127250A128A11723036
:10011800F3000030F4000A128A1114250A128A1119
:10012800AC30F3000030F4000A128A1114250A12C8
:100138008A110A128A111E250A128A110A128A11B4
:1001480027250A128A117330F3000030F4000A12CE
:100158008A1114250A128A110030F300F4000A12D9
:100168008A1126240A128A11730883120313AE0017
:100178002E08BF000A128A111E250A128A110A12B5
:100188008A1127250A128A117230F3000030F40010
:100198000A128A1114250A128A11AC30F3000030B1
:1001A800F4000A128A1114250A128A110A128A11F5
:1001B8001E250A128A110A128A1127250A128A1183
:1001C8007330F3000030F4000A128A1114250A1261
:1001D8008A110030F300F4000A128A1126240A1248
:1001E8008A11730883120313AE002E08BE000A1288
:1001F8008A111E250A128A11023083120313B000D5
:100208000430AF00B930AE00AE0B0829AF0B082997
:10021800B00B08290F29831203133F08AE00AF0162
:100228003E08B000B1013008B100B0012E0830041A
:10023800B2002F083104B3000A128A1127250A12C6
:100248008A110130F3000030F4000A128A111425D3
:100258000A128A110030F300F4000A128A112624C7
:100268000A128A11730883120313AE002E08BB000A
:100278000A128A111E250A128A11023083120313E8
:10028800B0000430AF00B930AE00AE0B4929AF0B57
:100298004929B00B49295029831203133B08013916
:1002A800AE002E08BA003B080239AE002E08B8008E
:1002B8000A128A1127250A128A110330F300003026
:1002C800F4000A128A1114250A128A110030F30068
:1002D800F4000A128A1126240A128A11730883125A
:1002E8000313AE002E08B6000A128A111E250A1240
:1002F8008A11023083120313B0000430AF00B93002
:10030800AE00AE0B8529AF0B8529B00B85298C294A
:100318002C300A128A1108250A128A118312031333
:100328003908303E0A128A1108250A128A112C301F
:100338000A128A1108250A128A1183120313370830
:10034800303E0A128A1108250A128A112C300A1224
:100358008A1108250A128A11831203133D08303EB8
:100368000A128A1108250A128A112C300A128A11D7
:1003780008250A128A11831203133A080319C5299A
:10038800C629DD293908031DCA29CB29DD29803072
:100398009500C0300A128A11D3240A128A11193022
:1003A8000A128A117F240A128A1183120313B901CF
:1003B800B90A38080319E129E229072A3708031D71
:1003C800E629E729072AC5300A128A11D3240A1216
:1003D8008A111D300A128A117F240A128A11831287
:1003E800031308108814C33083120313AF00CC30F2
:1003F800AE00AE0BFD29AF0BFD29000083120313DD
:100408008810B701B70A360803190B2A0C2A192ACB
:1004180039080319102A112A192A37080319152A25
:10042800162A192A8E018F01101404303502031C74
:100438001E2A1F2A232AB5011010B401B40A340356
:10044800031D272A282A6E2A3703031D2C2A2D2A42
:100458006E2A3903031D312A322A6E2AB401B701E4
:10046800B901C5300A128A11D3240A128A1113302D
:100478000A128A117F240A128A118312031308149C
:100488008810C33083120313AF00CC30AE00AE0B1C
:100498004B2AAF0B4B2A0000831203130810C330FA
:1004A80083120313AF00CC30AE00AE0B592AAF0B4A
:1004B800592A00002030831203139500C0300A1215
:1004C8008A11D3240A128A1122300A128A117F242F
:1004D8000A128A11831203138C1E732A742A782A2B
:1004E8001A08AE002E08BC003C08031D7C2A7D2A91
:1004F800A82A01303302F430031932020318852A7E
:10050800862A982ACC300A128A11D3240A128A1110
:1005180022300A128A117F240A128A1183120313C5
:10052800BD01BD0A0815A82ACC300A128A11D324A5
:100538000A128A1118300A128A117F240A128A11A3
:1005480083120313BD0108113C03031DAC2AAD2A15
:10055800BD2ACC300A128A11D3240A128A11193002
:100568000A128A117F240A128A1183120313BD0109
:10057800081102303C06031DC22AC32A5228CC3077
:100588000A128A11D3240A128A1122300A128A11F5
:100598007F240A128A1183120313BD01BD0A0815AC
:1005A80052280A128A110C28003083120313A4005F
:1005B8000030A3000030A2000030A10076087504C6
:1005C800740473040319E92AEA2A372BA501A50A3A
:1005D800FA2A0130A0000310F30DF40DF50DF60D05
:1005E800A00BEF2A0130A0002008A507F61FFD2A5E
:1005F800FE2AED2A0130A0000310A10DA20DA30DC3
:10060800A40DA00B002B76087A02031D152B750884
:100618007902031D152B74087802031D152B730826
:100628007702031C182B192B282B7308F702740860
:10063800031C740FF8027508031C750FF90276087D
:10064800031C760FFA02211401300310F60CF50C86
:10065800F40CF30CFF3E031D292B0130A502031DEA
:10066800362B372BFE2A2408F6002308F50022082B
:10067800F4002108F30008008312031385011A30DF
:10068800F700F830F600F60B472BF70B472B000066
:1006980030300A128A11D3240A128A110730F7005F
:1006A8007D30F600F60B562BF70B562B30300A121E
:1006B8008A11D3240A128A113530F600F60B622B00
:1006C80030300A128A11D3240A128A1138300A12D9
:1006D8008A11D3240A128A1110300A128A11D324DB
:1006E8000A128A1101300A128A11D3240A128A11B5
:1006F80006300A128A11D3240A128A1110300A12FB
:100708008A11D3240A128A110C300A128A11D324AE
:100718000A128A118230F700DD30F600F60B922BB0
:10072800F70B922B972B0800831603178801890172
:10073800831603138501860190308700880189019B
:100748008B170B170C14831203130C103030900402
:100758000A128A1140230A128A110A128A11BC2429
:100768000A128A11003083120313A9000630A80068
:100778001A30A7008030A6000A128A11EE230A1246
:100788008A11831603130715F93092008312031395
:1007980097151715203095008C100330920012150C
:1007A8008C1CD72BD82BD42B831603130711831239
:1007B800031385018601870188018901BE01BF01F4
:1007C800B201B301BC01B801B701BA01B901B60160
:1007D800B40108002830831203139400831603130E
:1007E8009101831203132608AA002708AB002808E2
:1007F800AC002908AD0002300310AA0DAB0DAC0DFA
:10080800AD0DFF3E031D002C2D08F6002C08F50049
:100818002B08F4002A08F3000030FA003D30F900F4
:100828000930F8000030F7000A128A11D8220A129B
:100838008A117308FF3E83160313930094018715EA
:10084800071608000A128A11FB240A128A11831655
:10085800031391150A128A11FB240A128A118312B2
:1008680003131308F500F6017508F7007608F80079
:100878000A128A11FB240A128A1173037404031DD5
:10088800462C472C4B2C8316031391124E2C83169F
:100898000313911611167808F4007708F30008007E
:1008A80004308A000408840A8207003420344C3457
:1008B8006F3463346B34203444346F346F3472349F
:1008C80020344C34693467346834743473340034F5
:1008D80020344E344F342034003420344F344634DE
:1008E800463400344F34503445344E3400342034C8
:1008F8004F344E340034F800F601F701962C760890
:10090800780784000A128A1154240A128A110A12DA
:100918008A11A4240A128A110130F6070318F70A6B
:100928000030F7077608780784000A128A115424E1
:100938000A128A11003A031DA22CA32C832C08004A
:10094800F5007508831203138500091489142130F2
:10095800F300F30BAD2C8312031389100D30F40050
:10096800FB30F300F30BB62CF40BB62CBB2C0800B1
:1009780083160313871798161812831203139817F0
:100988008316031318158316031787118316031389
:100998009A01193099008312031318160800F500FC
:1009A8008312031309107508850089140630F400B2
:1009B8003030F300F30BDE2CF40BDE2C0000831236
:1009C800031389100800831203130C1CEC2CED2C64
:1009D800F42C8E018F010130F0007008B5070C105F
:1009E80072088A00710E8300FE0E7E0E09008316BF
:1009F80003131419002D012DFB2C11081F39031D99
:100A0800062D072DFB2C0800F3007308831203132F
:100A1800990083160313981C122D132D0D2D080011
:100A28000A128A11FB240A128A117308831203130B
:100A3800930008000A128A11FB240A128A118316ED
:100A48000313111508000A128A11FB240A128A11CD
:080A58008316031311140800BA
:04400E00D420FF3F7C
:00000001FF
