:020000040000FA
:060000000A128A110C280F
:10000800FE00030EF1000A08F2000A128A11E8281D
:100018000A128A110F28F801F901FA018312031351
:10002800A601A701A801A90183010A128A1185283E
:1000380083120313A101F41F222823282A28F30975
:10004800F409F30A0319F40AA101A10AF61F2D28DD
:100058002E283728F509F609F50A0319F60A01309A
:10006800F7007708A106A201A30173087404031915
:100078003E283F287628A001A00A4D280130031009
:10008800F30DF40DFF3E031D43280130F7007708F8
:10009800A007F41F50285128422801300310A20D50
:1000A800A30DFF3E031D522874087602031D5E2827
:1000B80073087502031C6128622869287308F50211
:1000C8007408031CF603F602221401300310F40C22
:1000D800F30CFF3E031D6A280130A002031D75289A
:1000E80076285128210803197A287B288028A20914
:1000F800A309A20A0319A30A2308F4002208F3009B
:1001080008000A128A1149210A128A11831203135C
:100118008F018E010614023083120313A400A40B6E
:1001280093280000831203130610861C9C289D2820
:10013800992810148618A128A2289E2810100F08A4
:10014800A9000E08A8003A30F3000030F40029088E
:10015800F6002808F5000A128A111C200A128A11D2
:10016800740883120313A7007308A6002708803AAF
:10017800FF0080307F02031DC32806302602031CBF
:10018800C628C728C828F901831203132708803A0C
:10019800FF0080307F02031DD32805302602031894
:1001A800D628D728D928F901F90A41308312031330
:1001B800A500ED30A400A40BDF28A50BDF28E42858
:1001C8008A280A128A110C28831203138C1DED2821
:1001D800EE2842291412141BF228F328F728941F3A
:1001E800F628F728FE281308F0007008FA00141300
:1001F8009413141683160313941A032904291F2928
:100208001419072908291F29831203131308F0005A
:100218007008FA008C11141683160313141C152980
:100228001629102983120313130888005330F0008D
:10023800F00B1C293F29941A222923293F29141D30
:10024800262927293F29831203131308F000700871
:10025800FA0083160313141079088312031393000A
:1002680014165330F000F00B3729831603131418B3
:100278003E293F293929831203138C1172088A00F9
:10028800710E8300FE0E7E0E090083160317880187
:1002980089018316031385010230860087018801CE
:1002A80089018B1702300A128A1165210A128A11F4
:1002B8008312031385018601870188018901F901E9
:1002C8000800F30073088316031393003630831273
:1002D80003139400803083160313940001309100B7
:1002E800871507168B170B17831203138C118316A8
:0602F80003138C15080041
:04400E00D420FF3F7C
:00000001FF
